:100000000C942A040C9462040C9462040C94620410
:100010000C9462040C9462040C9462040C946204C8
:100020000C9462040C9462040C94422B0C94FE2AEF
:100030000C943F2C0C9462040C9462040C946204A3
:100040000C9462040C9462040C9462040C94620498
:100050000C9462040C941B2C0C9462040C946204A7
:100060000C9462040C9462040C9462040C94620478
:100070000C9462040C9462040C9462040C94620468
:100080000C9462040C9462040C9462040C94620458
:100090000C9462040C9462040C9462040C94620448
:1000A0000C9462040C9462040C946204050109022D
:1000B000A10185020901A100050919012905150001
:1000C00025019505750181029501750381010501E1
:1000D000093009311581257F950275088106093897
:1000E0001581257F950175088106050C0A380215D2
:1000F00081257F950175088106C0C005010980A191
:1001000001850319012AB700150126B7009501756D
:10011000108100C0050C0901A101850419012AA064
:1001200002150126A002950175108100C00660FF2E
:100130000961A1010962150026FF0095207508815B
:10014000020963150026FF00952075089102C0057D
:10015000010906A101050719E029E7150025019508
:1001600008750181029501750881010507190029AB
:10017000FF150026FF009506750881000508190186
:100180002905950575019102950175039101C0003E
:10019000000000000000000000000000000000005F
:1001A000000000000000000000000000000000004F
:1001B0000000007E0F00D4FFFFFFC70000007800A2
:1001C000000000000000002A2B28000000000000B2
:1001D0000000000000000000000029000000002CCA
:1001E0001E3420212224342627252E362D37382769
:1001F0001E1F202122232425263333362E37381F75
:100200000405060708090A0B0C0D0E0F1011121336
:100210001415161718191A1B1C1D2F3130232D35D4
:100220000405060708090A0B0C0D0E0F1011121316
:100230001415161718191A1B1C1D2F3130354CFDBB
:10024000377A585A000004E6D6B446020021011657
:10025000000000742FE5A3E00387014A5D003D889C
:1002600089C65436C3174FE4DB90F2389910DD315C
:10027000765675E3BD9B21CBE10377AA72A32E4985
:100280002B8809422272E355CC1C95C495D74FEABE
:100290006607410D8756BD8769455C79FA40D544AC
:1002A0008FED1F5D5783E5CA985C05764A3A09448D
:1002B00050F97B62B2EAA02E9D7F5F525C172FF649
:1002C0002BD80AAE69A4BB1BE338CB015ED1750BFA
:1002D0008146CE89E014FC5DC5B4AF5CA96BF51610
:1002E00095014D939A8728FE83FEC9D3EB41197877
:1002F0008C0E074B6B87E4832732B433E5E110E2C1
:10030000BB5E3F3139FA8569CAC816AB83B9D84795
:10031000B874A40185A03FBC92D20E70A719EA1848
:10032000773DB83FE80DA5A3F3386852C7B582CC36
:100330006162ADD8A34A57DAFD0F20F9CC4FF865BA
:100340005658369D95BE7AB53DD86FC48EF8DF817C
:100350006E43798F8E75CA01C0A3B070ACAB071B1A
:100360007D237E1D0921EC3F8303DF04ED9A7D0F81
:10037000459BB5204BDE91F1C59DDF2F27030F4430
:10038000EBBD3F1095C05951BBE9D64B1ACB5A175C
:10039000DF7F42F6775F2EAA2796468CBB1E66DF6C
:1003A000F78349F5567D4C6F0000004E86ACD64C65
:1003B0002703440001E6028807000073F72A54B1BE
:1003C000C467FB020000000004595A00010101014A
:1003D0000101010101020202020202020202030300
:1003E00003030303030304040404040404050505D0
:1003F0000505060606060607070707070808080892
:10040000090909090A0A0A0B0B0B0C0C0C0D0D0D3E
:100410000E0E0E0F0F0F10101111111212131314D4
:1004200014151516161717181819191A1A1B1B1C4C
:100430001D1D1E1E1F2020212222232424252626A6
:10044000272829292A2B2C2D2D2E2F3031323233DB
:100450003435363738393A3B3C3D3E3F40414243E4
:100460004445464748494A4C4D4E4F5051535455C8
:100470005658595A5B5D5E5F616264656668696B78
:100480006C6D6F7072737577787A7B7D7E808283F6
:100490008587888A8C8E8F91939596989A9C9EA03A
:1004A000A2A3A5A7A9ABADAFB1B3B5B7BABCBEC047
:1004B000C2C4C6C9CBCDCFD1D4D6D8DBDDDFE2E410
:1004C000E7E9EBEEF0F3F5F8FAFDFF29001E001F57
:1004D0000020002100220023002400250026002700
:1004E000002D002E002A0053005400550056002B0A
:1004F0000014001A000800150017001C0018000C5A
:1005000000120013002F00300031005F0060006116
:10051000000000390004001600070009000A000B63
:10052000000D000E000F0033003400000028005CB6
:10053000005D005E005700E1001D001B0006001971
:10054000000500110010003600370038000000E5FB
:1005500000520059005A005B000000E000E300E296
:1005600000000000002C00000000000000E600E792
:10057000000151500051004F00620063005800001C
:100580005C3A003B003C003D003E003F0040004123
:100590000042004300440045000100C25CCB5C0106
:1005A0000001000100010001000100010001000143
:1005B0000001000100010001000100010001000133
:1005C0000001000100000001000100010001000124
:1005D0000001000100010001000100010001000014
:1005E0000001000100010001000100010001000103
:1005F00000010001000100010001000100010001F3
:100600000000000100C95C010001000100000001C0
:1006100000010001000000000001000000000000D7
:1006200000010002510100C35CC55CC75C01000110
:10063000000100005C010001000100010001000157
:1006400000010001000100010001000100010001A2
:100650000001000100010001000100010001000192
:100660000001000100010001000100010001000182
:100670000001000100010001000000010001000173
:100680000001000100010001000100010001000162
:100690000001000000010001000100010001000153
:1006A0000001000100010001000100010001000142
:1006B0000001000100000001000100010001000133
:1006C0000000000100010001000000000001000026
:1006D0000000000000010001000100010001000114
:1006E0000001000100010001000100010001000102
:1006F00000010001000100010001000100010001F2
:1007000000010001000100010001000100010001E1
:1007100000010001000100010001000100010001D1
:1007200000010001000100010001000100000001C2
:1007300000010001000100010001000100010001B1
:1007400000010001000100000001000100010001A2
:100750000001000100010001000100010001000191
:100760000001000100010001000000010001000182
:100770000001000100000001000100010000000074
:100780000001000000000000000100010001000164
:10079000000100010001000100010009025B0003EB
:1007A0000100A0FA09040000010301010009211160
:1007B000010001224000070581030800010904012E
:1007C000000203000000092111010001222200079C
:1007D000058203200001070503032000010904022C
:1007E000000103000000092111010001228100071E
:1007F0000584032000011201000200000008EDFE44
:1008000060600001010203011C03760069006100C1
:100810006C003A006600360034006300320062006B
:100820003300630000001403410043003900380026
:1008300030004D0069006E00690000001203620084
:100840006C006F0063006B0062006F0079000000B5
:100850000403090411241FBECFEFDAE0DEBFCDBFD1
:1008600004B603FE18C08091480790914907A091F3
:100870004A07B0914B078730904BA740B04B59F4D3
:10088000109248071092490710924A0710924B079E
:10089000E0E0F8E3099527E0A4EDB2E001C01D9285
:1008A000A834B207E1F712E0A0E0B1E0E0EAF7E631
:1008B00002C005900D92A43DB107D9F70E94662CA5
:1008C0000C948B330C94000090914107937061F06D
:1008D00081110BC094609093410710921C0180918C
:1008E000400781608093400708958F3110F098672A
:1008F000F2CF880F880F982BEECF9091410793701D
:1009000071F08093420760934307473908F046E946
:100910004093440780914007816080934007089589
:10092000E8EDF0E080818E7F80831092E2001092EB
:10093000DA001092E100A0EEB0E08C9181608C931F
:1009400080818F77808319BCA7EDB0E08C918E7F7A
:100950008C9380818F7E808310922207089520914E
:10096000E4003091E50095E6A9012091EC00822F8A
:10097000817020FF06C08091E80080FF06C080E003
:1009800008952091E80022FD1AC080912F07882346
:1009900089F0853089F08091EB0085FD0FC02091B2
:1009A000E4003091E50042175307F9F29150E1F667
:1009B00084E0089582E0089583E0089581E0089539
:1009C000EF92FF920F931F93CF937C018B010E94B4
:1009D000AF04C82F811117C08091E80085FD0BC0BE
:1009E0008091E8008E778093E8000E94AF0488230E
:1009F00099F3C82F08C0F70181917F018093F1001E
:100A00000150110949F78C2FCF911F910F91FF9041
:100A1000EF9008958091310787FF13C08091E8001F
:100A200082FF06C08091E8008B778093E80004C0C5
:100A300080912F078111F2CF089580912F0788238D
:100A4000D9F38091E80080FFF8CF8091E8008E779D
:100A5000ECCF982F9093E900242F762F50E0891740
:100A600031F07091EC002091ED005091F00021FDEB
:100A700007C09F5F973071F78093E90081E0089588
:100A80003091EB003E7F3093EB003091ED003D7FE5
:100A90003093ED003091EB0031603093EB007093B8
:100AA000EC002093ED005093F0002091EE0027FD24
:100AB000E0CF80E00895CF92DF92EF92FF920F9304
:100AC0001F93CF93DF93C8EDD0E088818F7E88831A
:100AD000E7EDF0E080818160808384E082BF81E087
:100AE0008093220788818E7F888302EE10E0F801D0
:100AF00010821092DA0081EEC82ED12CF6011082FD
:100B000088818F77888388818068888388818F7DBA
:100B1000888319BC10922F071092300710922E076D
:100B200010922D0790EEE92EF12CF70180818B7F3A
:100B3000808388818160888342E060E080E00E9459
:100B40002905F60180818E7F8083F8018081816094
:100B50008083808188608083F70180818E7F80839D
:100B6000888180618883DF91CF911F910F91FF90E1
:100B7000EF90DF90CF900895FC018091370790911E
:100B8000380786179707A0F06115710529F4909131
:100B9000E8009E779093E80090E06115710551F4AC
:100BA000911108C08091E80082FF34C080E0089570
:100BB000BC01F2CF80912F078823C1F18530C1F1AC
:100BC0008091E80083FD30C08091E80082FDEACF8B
:100BD0008091E80080FFE1CF8091F3002091F20046
:100BE000382F6115710519F02830310558F091E062
:100BF0002830310509F090E02091E8002E7720930D
:100C0000E800CBCF81918093F100615071092F5F93
:100C10003F4FE7CF80912F07882341F0853041F087
:100C20008091E80083FFBECF81E0089582E00895BF
:100C300083E0089508958091240708959C014FB79B
:100C4000F89480911B0790911C07A0911D07B0910B
:100C50001E074FBF821B930B08952FB7F894809106
:100C60001B0790911C07A0911D07B0911E072FBF75
:100C700008959C01FC0132969FEF80E04191461758
:100C800051F09F3F19F4411101C0982F8F5F8630BA
:100C9000A9F79F3F09F40895290F311D97FD3A9553
:100CA000F9016283089520911807309119072817D8
:100CB000390771F09093190780931807E091160790
:100CC000F0911707309721F00084F185E02D099409
:100CD000089520911407309115072817390771F0EE
:100CE0009093150780931407E0911607F09117076A
:100CF000309721F00680F781E02D09940895E09166
:100D00001607F0911707309721F00190F081E02D40
:100D1000099480E00895FA01811101C0FB01099452
:100D2000EBEFF4E0818360834283339695E0EE3EFF
:100D3000F907C1F70895FC01EE0FFF1FE80FF91F37
:100D4000E550FB4F6183408322830895E1E4F7E09F
:100D500024813AE0231B08F420E02483809140079B
:100D60008160809340070895E1E4F7E024813AE050
:100D7000230F08F42FEF2483809140078160809334
:100D800040070895E1E4F7E0438128E0421B08F4BE
:100D900040E08181628190E00C947D04E1E4F7E021
:100DA000438128E0420F08F44FEF8181628190E097
:100DB0000C947D04E1E4F7E0628128E0621B08F412
:100DC00060E08181438190E00C947D04E1E4F7E0F0
:100DD000628128E0620F08F46FEF8181438190E027
:100DE0000C947D04E1E4F7E08181438162818850C5
:100DF000990B0C947D04E1E4F7E0818190E043815C
:100E0000628108960C947D048091410786958695B1
:100E1000815009F48EE10C94640480914107869519
:100E200086958F5F8F3108F081E00C946404E42F85
:100E3000F0E0EE0FFF1FEF51FE4F9081921B97FDE8
:100E40009195292F38E1239F212D1124620F0895B8
:100E50000F931F9310E0F801EE0FFF1FEF51FE4FAD
:100E60009081905797FD9195000F111FF801EE5159
:100E7000FE4F00810052110B2003F001219FF00D65
:100E8000112408E310E0091B110997FD1395400395
:100E90009001419F300D1124E20FF31F9F01220F9B
:100EA000331F2E0F3F1F37FF02C021583F4F220F25
:100EB000232F221F330B620F1F910F9108950F9361
:100EC0001F93522F10E0F801EE0FFF1FEE51FE4F5F
:100ED000A081A052BB0B9D015203F001539FF00D66
:100EE0001124000F111FD801AF51BE4F0C910057B4
:100EF000110B40039001419F300D11242E0F3F1F15
:100F000037FF02C0215C3F4F96E0359527959A95B3
:100F1000E1F7620F1F910F9108950F931F93522FC6
:100F200010E0F801EE0FFF1FEE51FE4FA081A0521E
:100F3000BB0B9D015203F001539FF00D1124000FD4
:100F4000111FD801AF51BE4F0C910057110B400338
:100F50009001419F300D11242E0F3F1F37FF02C01B
:100F600021583F4F220F232F221F330B620F1F9157
:100F70000F910895EF920F93972F23E0029FB001F6
:100F80001124759567956E0D792F0F91EF90089547
:100F9000322F50E0FA01EE0FFF1FEE51FE4F90810D
:100FA000905297FD9195440F551FFA01EF51FE4F56
:100FB0002081231B330B290F311D97FD3A95620FBA
:100FC0000895E42FF0E0EE0FFF1FEE51FE4F608119
:100FD000621B0895E42FF0E0EE0FFF1FEF51FE4F6C
:100FE0006081621B0895622F0895E42FF0E0EE0FF8
:100FF000FF1FEF51FE4F408134EE439F412D1124DE
:10100000E82FF0E050E0445E5F4FDA01A21BB10927
:101010009D01B7FF03C031952195310993E0220F5F
:10102000331F9A95E1F7AF01421B530B9A0157FD0D
:1010300020E0582F259F212D1124822F0895E42F81
:10104000F0E0EE0FFF1FEF51FE4F408134EE439F63
:10105000412D1124E72FF0E050E0445E5F4FDA01AC
:10106000A21BB1099D01B7FF03C03195219531093C
:1010700093E0220F331F9A95E1F7AF01421B530B08
:101080009A0157FD20E0279F212D1124722F0895EA
:101090000C9490060C949B06FC019B01009729F48C
:1010A00080E077FF2BC080E80895AC0197FF04C073
:1010B00044275527481B590BB901640F751F37FD8D
:1010C00010C0241B350BC901A5E0880F991FAA95F4
:1010D000E1F70E94243280E2861BF7FF0FC0819562
:1010E0000895CB0165E0880F991F6A95E1F7BA0171
:1010F000621B730B0E94243280E6EECF0895EF92BC
:101100000F93CF93DF93D72FC82FC9010E19BA01C0
:101110000E944C08602F681B7D2F8C2FDF91CF9190
:101120000F91EF9008950F93CF93DF93D72FC82F90
:10113000C901BA010E944C08682F600F7D2F8C2FC7
:10114000DF91CF910F910895EF920F931F93CF935B
:10115000DF93D62FC72F182FC9010E19010FBA011F
:101160000E944C08081B202F219F212D1124822F23
:101170006D2F7C2FDF91CF911F910F91EF900895EC
:10118000EF920F931F93CF93DF93D62F172FC82F74
:10119000C9010E19070FBA010E944C08702F781B65
:1011A000719F712D11246D2F8C2FDF91CF911F9185
:1011B0000F91EF9008950F931F93CF93DF93D62F46
:1011C000C72F182FC901212F201B022FBA010E94FF
:1011D0004C08982F990F990F891B800F282F219F5A
:1011E000212D1124822F6D2F7C2FDF91CF911F9104
:1011F0000F9108950F931F93CF93DF93D62F172F3F
:10120000C82FC901272F201B022FBA010E944C08AA
:10121000982F990F990F782F791B700F719F712D4F
:1012200011246D2F8C2FDF91CF911F910F91089575
:10123000E82F86FDE0952E2F2F7086FD2F5FE69517
:10124000E695E695E670F0E0E059FE4F9181929FB9
:10125000902D212D112492959F702295207F922B05
:101260002081920F87FD919580E8890F08950F9353
:101270001F93CF93DF938B01D82FC42F822F0E940F
:101280001809EC2FF0E0EE0FFF1FEF51FE4F908199
:101290009058890F87FD8195880F682F2CE0629FF9
:1012A000612D1124600F712F8D2FDF91CF911F9130
:1012B0000F910895409112015091130125E038E0FB
:1012C000429FC001439F900D529F900D1124875E55
:1012D000994C9093130180931201890F0895AC01EA
:1012E0008230910508F408959FEF413E8EE1580742
:1012F00040F49A0195E0369527959A95E1F798E0A4
:10130000920F61E0E62FE90FFF27FF1F9F01359540
:101310002795822F229FF001239FF00DF00D1124BD
:101320004E175F0738F49FEF920F961758F78FEF1D
:10133000860F08952F3FE9F361E0620FF6CF0F9318
:10134000CF93DF93D72FC82F47FD419588E390E0D7
:10135000841B910947FD9395889FB001899F700D6B
:10136000700D1124229FC001239F900D900D112418
:10137000860F971F0E946F09982F990F890F682F6A
:10138000600F7D2F8C2FDF91CF910F91089530E06A
:1013900020E0869F212D969F200D311D1124C9012B
:1013A00008952091450730E1230F08F42FEF60E105
:1013B000822F90E00E94C709BC0188EB9BE00E944D
:1013C000103290E080E00895AF92BF92CF92DF920A
:1013D000FF920F931F93CF93DF93362F472FE82F62
:1013E000F0E0E553FC4F71110FC0E4918E2F2E2FCA
:1013F0006E2F722FDF91CF911F910F91FF90DF9091
:10140000CF90BF90AF900895C72FD0E02491F22ED7
:10141000022F10E056E0659FC0011124EFEFF0E0CD
:10142000BF010E941032832F90E0880F991F35E58D
:10143000369FD001379FB00D11248A1B9B0B982F2C
:10144000990F980F6F01CC1ADD0AC09ED001C19E82
:10145000B00DD09EB00D11248B2F499FA0011124F7
:10146000452F55276F01C41AD50AC09EA001C19E01
:10147000500DD09E500D11245F01A91AB108AC9EE9
:101480006001AD9ED00CBC9ED00C1124CD2CDD246F
:10149000EC19FD09E09FE001E19FD00DF09FD00D18
:1014A0001124ED2F62307105A1F050F46115710522
:1014B00009F49ECF6130710581F0EB2F852F98CF15
:1014C0006430710569F080F06630710509F490CFE1
:1014D000F4CFE22F2B2F8D2F8BCFE22F252F88CF0C
:1014E000EB2F822F2D2F84CF2B2F8F2DE52F80CF09
:1014F000DF92EF92FF920F931F93CF93DF937C01C4
:10150000C091190181E1C89FC02D112411E11C0F68
:10151000012F123508F001E5609145076695669543
:1015200021E0620F08F46FEF8091390790913A073C
:101530000E94C709D82ED0E0C01760F081E01135B5
:1015400008F080E0DF91CF911F910F91FF90EF9015
:10155000DF900895FE01ED57FD4F808190911A01B3
:10156000892391F06091420770914307809144076D
:101570002D2D4C2FF70109950E94E409462F282FA5
:10158000672FCE010E944A082196D6CF9F92AF9234
:10159000BF92CF92DF92EF92FF920F931F93CF9360
:1015A000DF936C01C091190181E1C89FC02D112406
:1015B00011E11C0FB12E123510F031E5B32E609100
:1015C0004507669566958091390790913A070E9484
:1015D000C709F82E80E48F0D0E94180990E8A92E03
:1015E000A80E8F2D0E94180920E8922E980ED0E0A8
:1015F000CB1580F081E0113508F080E0DF91CF91CC
:101600001F910F91FF90EF90DF90CF90BF90AF9020
:101610009F900895FE01ED57FD4F808190911A0132
:101620008923A1F06091420770914307809144079C
:10163000EF2C0C2F292D4A2DF60109950E94E40963
:10164000462F282F672FCE010E944A082196D0CF1F
:101650007F928F929F92AF92BF92CF92DF92EF9242
:10166000FF920F931F93CF93DF935C01C0911901F9
:1016700081E1C89FC02D112411E11C0FF12E1235FC
:1016800010F031E5F32E609145076695809139079A
:1016900090913A070E94C709782ED0E0CF1590F0BC
:1016A00081E0113508F080E0DF91CF911F910F911B
:1016B000FF90EF90DF90CF90BF90AF909F908F9072
:1016C0007F900895FE01ED57FD4F808190911A01A2
:1016D0008923C9F1CE01880F991F89579E4FFC01BC
:1016E000E65AFF4F2081422F4057550B6A01855A19
:1016F0009F4FFC018081282F2052330B4901449FCA
:101700009001459F300D300D1124889CC001899CAB
:10171000900D900D1124820F931F0E946F09082FC6
:10172000609142077091430780914407E72C940130
:10173000A601F50109950E94E409462F282F672F7D
:10174000CE010E944A082196A9CFCF92DF92EF9254
:10175000FF920F931F93CF93DF937C01C0911901E8
:1017600081E1C89FC02D112411E11C0FD12E12352B
:1017700010F031E5D32E60914507669580913907C9
:1017800090913A070E94C709C82ED0E0CD1568F0A5
:1017900081E0113508F080E0DF91CF911F910F912A
:1017A000FF90EF90DF90CF900895FE01ED57FD4F31
:1017B000808190911A01892311F1CE01880F991F20
:1017C00089579E4FFC01E55AFF4F20812052330B71
:1017D000865A9F4FFC0140814057550B609142074C
:1017E00070914307809144070C2DF70109950E94E1
:1017F000E409462F282F672FCE010E944A08219620
:10180000C5CF0E942D069C019091990380919A0367
:10181000982B21F0309396032093950390919B038E
:1018200080919C03982B21F0309394032093930391
:10183000E0911607F0911707309749F082E0809306
:1018400097030480F581E02D87E993E009940895DA
:1018500090919903803F59F480919A0387FF0DC0BE
:1018600010929A0391110BC01092910308C0813F0E
:1018700081F480919A0318169CF3992381F080914A
:101880009B0390919C03892B09F064C010929003F4
:101890000895823F49F497FFF0CF10929903809109
:1018A0009A038111ECCFE0CF833F19F41916ACF302
:1018B000E4CF20919B03893F29F41216F4F610928D
:1018C0009B03DBCF8A3F19F427FFD7CFF8CF2091B6
:1018D0009C038B3F29F427FFD0CF10929C03CDCFE0
:1018E0008C3F19F41216CCF3C8CF843F31F48091A9
:1018F00098038E7F80939803C0CF853F21F4809119
:1019000098038D7FF7CF863F21F4809198038B7FDA
:10191000F1CF873F21F480919803877FEBCF883FF9
:1019200021F4809198038F7EE5CF8D3F31F4809133
:1019300092038E7F80939203A0CF8E3F21F48091FB
:1019400092038D7FF7CF8F3F09F097CF809192035D
:101950008B7FF0CF08958091920380FD16C081FDAA
:1019600016C082FD16C0809190038823A1F08832B2
:1019700080F428E0829FC001112468E270E00E9498
:101980002432862F672B39F0089582E0089584E091
:10199000089588E0089581E008958091920380FD84
:1019A00014C081FD14C082FD16C08091910388236C
:1019B00081F08E3180F420E5829FC00111246EE118
:1019C00070E00E942432862F089584E1089588E211
:1019D000089588E0089580E50895803F31F40E94DD
:1019E000CD0C819580939A030895813F19F40E944C
:1019F000CD0CF8CF823F31F40E94CD0C81958093BD
:101A000099030895833F19F40E94CD0CF8CF893FC4
:101A100029F40E94AB0C80939B0308958A3F21F424
:101A20000E94AB0C8195F7CF8B3F31F40E94AB0C39
:101A3000819580939C0308958C3F19F40E94AB0C10
:101A4000F8CF843F31F480919803816080939803AC
:101A50000895853F21F4809198038260F7CF863FF7
:101A600021F4809198038460F1CF873F21F4809125
:101A700098038860EBCF883F21F4809198038061C0
:101A8000E5CF8D3F31F48091920381608093920382
:101A900008958E3F21F4809192038260F7CF8F3FAB
:101AA000B9F7809192038460F1CF80E00895F894B3
:101AB000E82FE295EF70F0E031A1282F2F7081E040
:101AC00090E001C0880F2A95EAF7982F909593230C
:101AD00091A392A1892B82A3789408959091620397
:101AE00092FF06C0282F28712830F9F4877F846080
:101AF00093FF06C0282F28712831F1F4877E846176
:101B00002091630320FF06C0382F38713830D9F494
:101B1000877F816021FF06C0282F28712831D1F4EA
:101B2000877E816194FD877E0895282F247124305B
:101B3000F9F68B7F8860DCCF282F2471243101F7E0
:101B40008B7E8861DDCF382F3171313019F78E7F70
:101B50008860E0CF282F2171213121F78E7E8861A6
:101B6000E1CFCF93DF93EC0182389105A9F1D8F54D
:101B70008133910509F496C048F58932910509F43D
:101B80008AC08A9709F495C0C11521E5D20708F0EB
:101B9000BCC0C11530E5D30708F014C1C83ED1055B
:101BA00008F09CC0C03ED10560F5C83AD10508F0E8
:101BB00087C0C53AD10508F0FDC0C130D10509F193
:101BC0002097F9F0C430D105E0F440C08533910589
:101BD00009F45AC0C997C1F680916203837089F0F5
:101BE000C0EED0E00EC0833E910599F170F4803EC6
:101BF000910501F1823E910539F68091620382FDE3
:101C000021C0CE01DF91CF910895863E910561F10B
:101C1000873E910571F1843E910509F0B5CF809121
:101C2000630381FFEECF80916203C7EED0E084FDB5
:101C30000DC0E7CF8091620380FD12C190916303D4
:101C400090FFDFCFC3EED0E084FFDBCFD0E0C0E079
:101C5000D8CF8091620382FD06C19091630390FD0D
:101C6000BFCF84FFCECFF2CF8091620383FDDDCF63
:101C7000C8CF8091620383FDF9C09091630391FF07
:101C8000F0CFC4EED0E0BDCF8091620385FFB9CF25
:101C9000C9E2D0E0B6CF8091620385FFB2CFC5E341
:101CA000D0E0AFCF8091620386FFABCFCAE2D0E035
:101CB000A8CF8091620386FFA4CFC1E3D0E0A1CF7B
:101CC000CF3BD10518F6C85AD0E0CC0FDD1FC55D5B
:101CD000DE4F0990D881C02DD46493CFC11540E266
:101CE000D40758F4C11581E0D80708F08ACFC03F67
:101CF000D10508F4ABCFD06584CFC11590E4D907E6
:101D000008F4A4CFDF70D06A7CCFC11525E5D207D7
:101D100000F5C11534E5D30708F08AC0C11543E5C5
:101D2000D40708F071C0C11582E5D80708F467C070
:101D3000CE018370992721E030E002C0220F331FCB
:101D40008A95E2F7C695C69580E2C89FE001112406
:101D500052C0C11599E5D907A8F4C11528E5D207E5
:101D600008F06BC0C11536E5D30708F06FCF8C2F94
:101D70000E946E0DC82FD0E0DC2FCC27CC27DF715E
:101D8000D0623FCFC1154AE5D40708F45BC0CE014D
:101D900090568115904208F059CF8D2F8F710E9477
:101DA0006E0D90E0982F882788279F719C012C2B1F
:101DB000E901E6CFC55AD0E0C85DDE4FC881D0E06A
:101DC000D0641FCFCE01E4E096958795EA95E1F7C0
:101DD00083702C2F26952695237040E2249F900136
:101DE0001124382B8C2F8370C1E0D0E002C0CC0FBF
:101DF000DD1F8A95E2F7C22BD32BDC6802CFDC2FE4
:101E0000CC27C16FD06AFDCECE018370992721E027
:101E100030E002C0220F331F8A95E2F7C695C695BF
:101E200090E2C99FE0011124C22BD32BDA68E9CEDE
:101E3000DC2FCC27C46FD06AE4CEDC2FCC27C06F58
:101E4000D06ADFCE8C2F8F700E946E0D34E0D69555
:101E5000C7953A95E1F7CF709C2FEC01D069D1CEB0
:101E6000C9E3D0E0CECEC2EED0E0CBCEC6EED0E01D
:101E7000C8CE80914903882331F010924903109213
:101E8000480310924703089580959091090698237E
:101E90009093090608958095909108069823909351
:101EA0000806089510923E0310923D0310923C03E1
:101EB000089580913B03811110923B030895809116
:101EC0003A0390910903981301C008958F5F8770BA
:101ED000FACF9E3F49F1E82F22E1929FE00D1124B5
:101EE0009E2F9770E695E695E69583E0E89FF001D2
:101EF0001124E152FD4F50E040E080E0219130E0BC
:101F0000092E02C0369527950A94E2F721703327EF
:101F1000042E01C0220F0A94EAF7822B4F5F5F4F15
:101F20004330510559F7089580E008959E3F69F1C7
:101F3000E82F22E1929FE00D11248E2F877041E05F
:101F400001C0440F8A95EAF7E695E695E69583E0A9
:101F5000E89FF0011124E152FD4F30E020E070E0F5
:101F60005191DF011197CB01022E02C09695879502
:101F70000A94E2F7817081958527842385278C93C5
:101F80002F5F3F4F2330310559F708959C013A9553
:101F900021153F4150F5FC01EE27F170BC01662789
:101FA0007270AC01442754709C012227387094FF52
:101FB0000EC080E1EF2B09F480E0672B09F080620E
:101FC000452B09F08064232B89F08068089581E017
:101FD000EF2B09F480E0672B09F08260452B09F0B4
:101FE0008460232B19F08860089580E00895809321
:101FF0001F07709321076093200780912F0784307B
:10200000F9F48093E9008FEF9091E800815095FDFD
:1020100006C095ED9A95F1F700008111F5CF8091FA
:10202000E80085FF0DC050E040E063E070E08FE124
:1020300097E00E94E0048091E8008E778093E800AA
:102040000895BC0184E00C94F70FBC0183E00C946C
:10205000F70F9C0184E08093E9009FEF8091E800F6
:10206000915085FD06C085ED8A95F1F7000091112C
:10207000F5CF8091E80085FF0CC050E040E066E0BD
:1020800070E0C9010E94E0048091E8008E7780939F
:10209000E8000895CF93DF93EC0181E08093E9009D
:1020A0008FEF9091E800815095FD06C095ED9A95CF
:1020B000F1F700008111F5CF8091E80085FF14C091
:1020C00050E040E068E070E0CE010E94E0048091C2
:1020D000E8008E778093E80088E0FE01A5E2B7E093
:1020E00001900D928A95E1F7DF91CF91089581E0FB
:1020F0008093E00080E28093D8001092C9008FE1C5
:102100009EE40197F1F700C0000087E090EBDC014E
:102110008093480790934907A0934A07B0934B07D1
:1021200088E19CE00FB6F894A895809360000FBEFC
:1021300090936000FFCF279A35B13F7725B1206893
:102140004FB7F8948BEF94E0FC015191CF0168E018
:1021500025B9000000C057FF35B9550F000000C079
:1021600000C000C035B900C06A9591F7F5E08E3E19
:102170009F0751F74FBF8FE594E00197F1F700C03B
:1021800000000895CF93DF93CBEBD2E060E0CE0167
:102190000E94EC322196C11584E0D807B9F7DF918F
:1021A000CF9108950F931F93CF93DF9389018330CD
:1021B00048F5653038F5423128F521153C4531F4B4
:1021C0002091160130911701232BE1F0C42FD0E0AC
:1021D000CC0FDD1F94E2699FC00DD11D112494EB3B
:1021E000899FC00DD11D1124612FCE0187960E94B9
:1021F000EC32602FCE018896DF91CF911F910F9125
:102200000C94EC32DF91CF911F910F910895CF93F1
:10221000C82F6FEF81116DEE83E290E00E94EC32E7
:102220006FEFC11161EF84E290E00E94EC326FEF3A
:10223000C11167E785E290E0CF910C94EC327F9278
:102240008F929F92AF92BF92CF92DF92EF92FF92C6
:102250000F931F93CF93DF93CDB7DEB72A970FB6B7
:10226000F894DEBF0FBECDBFA0901601B09017014D
:1022700081E090E090931701809316018BECC82EBB
:1022800084E0D82E00E0760110E015C0F40125911D
:102290003491472D612F802F0E94D21082E0880E4A
:1022A000911C739482E17812F1CF84E2E80EF11C64
:1022B0001F5F153019F04701712CE8CF0F5F84EBD9
:1022C000C80ED11C0330F9F61A8219821C821B82B7
:1022D0001E821D8218861F8288EC90E09A8789876B
:1022E00003E412E04AE050E0B801CE0101960E94FA
:1022F0001033065F1F4F0B3B82E0180799F7B0922F
:102300001701A09216012A960FB6F894DEBF0FBEF1
:10231000CDBFDF91CF911F910F91FF90EF90DF9094
:10232000CF90BF90AF909F908F907F90089580E066
:102330000E94071160E086E290E00E94EC320E9469
:102340001F110E94C21081E00C9407119B018C3078
:1023500070F49AE0899FB00111246D5B7D4F4AE0D3
:1023600050E0C9010E94BE3290E080E008958FEFF6
:102370009FEF08958F929F92AF92BF92CF92DF927C
:10238000EF92FF920F931F93CF93DF93CDB7DEB7FA
:102390002A970FB6F894DEBF0FBECDBF0CE016E053
:1023A000F12CE12C88E5C82E8AE2D82E92E8A92EDD
:1023B0009AE2B92E24EB822E29E2922EF801D182E4
:1023C000C082B382A28295828482F58AE48ABE01A9
:1023D0006F5F7F4F8E2D0E94A611892B29F489856E
:1023E0009A85F801938B828BFFEFEF1AFF0A0A5E42
:1023F0001F4F8CE0E816F10409F72A960FB6F894FF
:10240000DEBF0FBECDBFDF91CF911F910F91FF9027
:10241000EF90DF90CF90BF90AF909F908F900895F6
:102420000F931F93CF93DF93833030F5653020F502
:10243000423110F5C42FD0E0CC0FDD1F24E2629FA3
:10244000C00DD11D112434EB839FC00DD11D11246B
:10245000CE0187960E94CE32082F10E0102F002761
:10246000CE0188960E94CE329801282BC901DF91B7
:10247000CF911F910F91089590E080E0F8CF462F03
:102480002091060630910706232B91F47E3F39F404
:102490006E3F71F480910406909105060895833093
:1024A00038F4753028F4623118F4672F0C94101248
:1024B00090E080E00895CF92DF92FF920F931F93F8
:1024C000CF93DF936C010091470780914A03082B5B
:1024D000C7E0D0E010E0FC2EC8010C2E02C095959C
:1024E00087950A94E2F780FD0CC02197A0F7F12CA4
:1024F0008F2DDF91CF911F910F91FF90DF90CF90A3
:102500000895B6018C2F0E943F120E94B10D0197D1
:1025100061F3EECFCF93DF93EC010E945B12BE011B
:102520000E943F12DF91CF910C94B10DFC0180818C
:1025300091810E948A1292959F70963091F058F482
:10254000925F9F70923058F4803F19F030F4883ECB
:1025500030F481E008959A5FF4CF843FD1F380E0B6
:102560000895883EB0F3813FD1F7F3CF83E290E046
:102570000E94CE328D3E89F484E290E00E94CE32F9
:10258000813F59F485E290E00E94CE3291E0873796
:1025900009F090E0892F8170089580E0FCCFCF93FF
:1025A00084E090E00E94CE32C82F82E290E00E9448
:1025B000CE32982F8C2FCF9108951F93CF93DF9316
:1025C000EC01FC01ED57FD4F80816823C9F00E94AA
:1025D0009132182F0E9491328F77782F20E8720F56
:1025E00008F47FEF612F809144070E94E409462F91
:1025F000282F672FCE01DF91CF911F910C944A08AD
:10260000DF91CF911F910895DF92EF92FF920F9388
:102610001F93CF93DF938C01FC01ED57FD4F808119
:10262000682381F1D0904307D0914407C0914207BD
:10263000EC2EF12C0E949132282FC7018C549F4F11
:1026400068E671E00E9424328E199F0997FD039677
:10265000959587959595879523706C2F289F600D8C
:1026600011247D2D8D2F0E94E409462F282F672FDE
:10267000C801DF91CF911F910F91FF90EF90DF90F4
:102680000C944A08DF91CF911F910F91FF90EF902A
:10269000DF9008955F926F927F928F929F92AF9298
:1026A000BF92CF92DF92EF92FF920F931F93CF933F
:1026B000DF93182F80911501811323C0909141075A
:1026C00093702091140130E081E09217130609F411
:1026D00080E0817080931B018091460790911A01E0
:1026E000981739F080931A0140E060E080E00E9482
:1026F00048081F3160F4E12FF0E0E357FC4C0C94E4
:10270000383281E0E6CF80911B01811124C0C0E006
:10271000809119018F5F80931901C1110CC082E073
:1027200080931C0180911B01811105C0111103C010
:1027300083E080931C01DF91CF911F910F91FF9057
:10274000EF90DF90CF90BF90AF909F908F907F9051
:102750006F905F90089540E060E080E00E9448083C
:10276000D6CFC091190181E1C89FC02D112401E18C
:102770000C0FF02E023510F061E5F62E6091420745
:1027800070914307809144070E94E409E62ED72EFA
:10279000C82ED0E0CF1528F0C1E0013508F4B8CF3D
:1027A000B6CFFE01ED57FD4F808190911A0189232C
:1027B00031F02C2D4E2D6D2DCE010E944A08219610
:1027C000E9CFC091190181E1C89FC02D112401E119
:1027D0000C0FF02E023510F051E5F52ED090430786
:1027E000E0904407D09142076D2F7D2D8E2D0E94E1
:1027F000E409C62EB72EA82E609145076D0F7D2DDA
:102800008E2D0E94E409E62ED72E982ED0E0CF150B
:1028100018F6FE01ED57FD4F908180911A01892332
:1028200059F0292D4E2D6D2D90FD03C02A2D4C2DD4
:102830006B2DCE010E944A082196E9CFC091190163
:1028400081E1C89FC02D112401E10C0FE02E02355B
:1028500010F041E5E42ED0904307C090440720914A
:10286000450730E4F32E3F2D329F312D1124F32EF6
:10287000D0E0CE1508F090CFFE01ED57FD4F8081DE
:1028800090911A018923B9F0FE01EE0FFF1FEE515E
:10289000FE4F808182958F70609142078F9D600D01
:1028A00011247D2D8C2D0E94E409462F282F672F9F
:1028B000CE010E944A082196DCCFC091190181E126
:1028C000C89FC02D112401E10C0FE02E023510F03D
:1028D00081E5E82ED0904307C0904407209145073A
:1028E000D0E4FD2E3F2D329F312D1124F32ED0E068
:1028F000CE1508F051CFFE01ED57FD4F808190912C
:102900001A018923D9F0FE01EE0FFF1FEF51FE4F90
:102910006081F69EB0011124B5E075956795BA9572
:10292000E1F780914207680F7D2D8C2D0E94E4090C
:10293000462F282F672FCE010E944A082196D8CF14
:10294000C091190181E1C89FC02D112401E10C0F34
:10295000F02E023510F071E5F72EE0904207D0918D
:102960004307D09044076091450766956695669544
:102970008091390790913A070E94C7090E9418096F
:10298000805887FD8195880F282F3D2D239F212D6D
:102990001124822F6E2D7D2F0E94E409E62ED72E62
:1029A000C82ED0E0CF1508F0F7CEFE01ED57FD4F51
:1029B000808190911A01892331F02C2D4E2D6D2D9F
:1029C000CE010E944A082196EDCF8FE198E00E9447
:1029D000780A07C085EF97E0FACF8AEF98E00E9467
:1029E000A50BC82F95CE8BED98E0F9CF80EC98E041
:1029F0000E94280BF6CF84EA98E0FACF83EF97E0A5
:102A0000E6CF8AEE97E0E3CF81EE97E0E0CF88EC67
:102A100097E0DDCF8AEB97E0EBCF8FE999E0DFCF4E
:102A200083E998E0DCCF8FE798E0E2CF8DE897E08C
:102A30000E94C60AD6CF8FE597E0FACF88E297E0EA
:102A4000F7CFC0911B01C1111EC06091450720E165
:102A5000620F08F46FEF8091390790913A070E9456
:102A6000C7096AE070E00E941032892B09F04FCE4E
:102A70000E94913261E570E00E94243260911A0157
:102A80000E94041345CEC091190181E1C89FC02D59
:102A9000112401E10C0F802F023508F081E5D0E010
:102AA000E82EF12CCE15DF050CF076CE60911A01E0
:102AB000CE010E9404132196F5CFC0911B01C111D4
:102AC0001EC06091450720E1620F08F46FEF80910E
:102AD000390790913A070E94C70965E070E00E94AB
:102AE0001032892B09F013CE0E94913261E570E01B
:102AF0000E94243260911A010E94DD1209CEC09119
:102B0000190181E1C89FC02D112401E10C0F802F14
:102B1000023508F081E5D0E0E82EF12CCE15DF0576
:102B20000CF03ACE60911A01CE010E94DD1221967E
:102B3000F5CFC091190181E1C89FC02D112401E199
:102B40000C0FF02E023510F061E5F62ED090430701
:102B5000E0904407D09142076091450766956695DD
:102B600066958091390790913A070E94C7090E94A3
:102B70001809805887FD8195880F682F2CE0629F87
:102B8000612D11246D0F7D2D8E2D0E94E409E62EFE
:102B9000D72EC82ED0E0CF1508F0FECDFE01ED57A0
:102BA000FD4F808190911A01892331F02C2D4E2DFB
:102BB0006D2DCE010E944A082196EDCF87E399E062
:102BC00006CF87E197E003CF40919D0350919E038C
:102BD00060919F037091A0038091390790913A070B
:102BE000A0913B07B0913C0784179507A607B7074C
:102BF00008F48DCD0E945A09082F0E945A0991E5C8
:102C0000891BF0F7890FC82FD0E0FE01ED57FD4F6B
:102C100080911A019081892309F479C020E040E075
:102C200060E001FD13C00E945A09082F0E945A0952
:102C3000782F76952FE7720F08F47FEF602F809141
:102C400044070E94E409462F282F672FCE010E94D7
:102C50004A082091450730E1230F08F42FEF60E187
:102C6000822F90E00E94C709BC0184EF91E00E948E
:102C700010328091390790913A07A0913B07B091AB
:102C80003C07860F971FA11DB11D80939D03909354
:102C90009E03A0939F03B093A00339CD4091940469
:102CA0005091950460919604709197048091390732
:102CB00090913A07A0913B07B0913C078417950784
:102CC000A607B70708F423CD80911B01811121C00D
:102CD000C091190181E1C89FC02D112401E10C0FA1
:102CE000D02E023510F051E5D52EEC2EF12CE3E07C
:102CF000CE9FE0011124CF55DC4FED1408F442C003
:102D0000E1EAF3E081E994E0013508F054C0C1E064
:102D1000FFCC40E060E080E00E94480841EAE42EF9
:102D200043E0F42ED0E0C0E00FE70E945A0981FF93
:102D30000CC0F7011082118212822196F3E0EF0E8F
:102D4000F11CC135D10589F7C3CF0E945A09B82EAD
:102D50000E945A098695782F700F08F47FEFCE01F4
:102D6000880F991F8C0F9D1F9C012F553C4F6901A7
:102D70006B2D809144070E94E409F6016083718302
:102D80008283DBCFF701ED57FD4F808190911A01CF
:102D9000892331F02A8148816981C7010E944A084C
:102DA00023962FEFE21AF20AA8CF238134814581BE
:102DB0002193319341938E179F07B9F70E945A09C7
:102DC00081FF1FC0109291041092920410929304FC
:102DD0000E94D109C0903907D0903A07E0903B0794
:102DE000F0903C07DC01CB018C0D9D1DAE1DBF1D7D
:102DF0008093940490939504A0939604B0939704C1
:102E000086CC0E945A09C82F0E945A098695782FAD
:102E10002FE7720F08F47FEF6C2F809144070E9418
:102E2000E409609391047093920480939304D0CF4B
:102E30004091F2045091F3046091F4047091F50410
:102E40008091390790913A07A0913B07B0913C07D8
:102E500084179507A607B70708F459CC80911B0182
:102E6000882329F040E060E080E00E9448086091FB
:102E7000420770914307809144070E94E409062F9E
:102E8000772E682EC8E9D4E097E8A92E91E0B92EF4
:102E900021E1E22EF12C670181E1C81AD108512C01
:102EA000C60188569B4F4C01F601E957FE4F8081C1
:102EB00090E0F4012081222309F476C0262D402FD2
:102EC000672D0E944A08F401818180835394FFEFAB
:102ED000CF1ADF0A28E05212E3CF670181E1582EB2
:102EE000C60188569B4F4C01F601E957FE4F808181
:102EF00090E0F4012081222309F45AC0262D402FAE
:102F0000672D0E944A08F40131978081F401808383
:102F10005A94F1E0CF1AD10829E05212E1CFF5011D
:102F2000818590E02985222309F446C0262D402F73
:102F3000672D0E944A08F501808590E028852223AC
:102F400009F43EC0262D402F672D0E944A080E949A
:102F50005A09837091E009F090E09887998762960A
:102F6000F2E1AF0EB11C22E1E20EF11C3BE6E316EA
:102F7000F10409F090CF0E94D109C0903907D09098
:102F80003A07E0903B07F0903C07DC01CB018C0D49
:102F90009D1DAE1DBF1D8093F2049093F304A0937A
:102FA000F404B093F504B3CB20E040E060E089CFB7
:102FB00020E040E060E0A5CF20E040E060E0B9CF55
:102FC00020E040E060E0C1CF8FB7F89440911B074C
:102FD00050911C0760911D0770911E078FBF409391
:102FE000F6045093F7046093F8047093F904809109
:102FF000FA04811113C090914107892F837019F051
:10300000892F8695869590911C019130B9F099236E
:1030100039F09230A9F09330F1F0089580E0F3CFC9
:10302000109219014093390750933A0760933B0778
:1030300070933C0781E080931C0108950C944A131F
:1030400080931501809141078370809314010E9441
:103050009B1083E0F0CF80914007882351F046E039
:1030600050E06CE170E081E497E00E94DC32109265
:1030700040074091390750913A0760913B077091A2
:103080003C072FB7F89480911B0790911C07A091E3
:103090001D07B0911E072FBF841B950BA60BB70B06
:1030A0004097A105B10510F010921C010895E1E4CC
:1030B000F7E085E3808380911D0190911E01A0912E
:1030C0001F0181839283A3838FE784838FEF85839E
:1030D00046E050E06CE170E0CF010E94DC321092DB
:1030E000400708954F925F926F927F928F929F92C6
:1030F000AF92BF92CF92DF92EF92FF920F931F9306
:10310000CF93DF93CDB7DEB764970FB6F894DEBFE9
:103110000FBECDBF8E010F5F1F4F84E1F8011192EA
:103120008A95E9F799E5E92E91E0F92E6801AA243C
:10313000A394B12C30E7832E31E0932EF7018191D7
:103140007F018F3F09F44FC0F894E82FE295EF70AC
:10315000F0E021A18F70A50102C0440F551F8A9590
:10316000E2F7CA01922F982B91A392A1809589230F
:1031700082A3789400C0EEE5F1E041E050E060E029
:1031800070E0412C512C320121912F3F09F46EC087
:10319000A22FA295AF70B0E090968C9190E02F7026
:1031A00002C0959587952A95E2F780FD5FC0DB0107
:1031B000CA01482A592A6A2A7B2A440F551F661FCA
:1031C000771F8E169F0601F7F701319780818F3F99
:1031D00011F00E94570D50EA5A95F1F7F60140821E
:1031E000518262827382F4E0CF0ED11C4EE5E41668
:1031F00041E0F40609F0A2CF44E150E0B8018EE4CA
:1032000093E00E94AA32FF24F394009709F4F12C72
:10321000892B81F184E1F801AEE4B3E001900D92D5
:103220008A95E1F781E080934D030E942D069093EB
:103230004C0380934B0380914B0390914C030E946D
:103240001E060597D8F0EEE4F3E0ACE7B3E0419159
:103250005191619171914D935D936D937D9353E085
:10326000E236F507A1F710924D0308C080E090E028
:10327000DC019FCF80914D038111DDCF8F2D6496AE
:103280000FB6F894DEBF0FBECDBFDF91CF911F9177
:103290000F91FF90EF90DF90CF90BF90AF909F90F5
:1032A0008F907F906F905F904F9008958091080667
:1032B00090910906892B8093D60280914903882337
:1032C00019F10E942D062091470330914803821B7B
:1032D000930B8838934110F00E94390F8091D602E9
:1032E00090914903892B8093D60220E088ED92E0EB
:1032F000FC013191CF0131112F5FF2E08E3D9F072C
:10330000B9F721110E94390F48E050E06FE373E0F4
:1033100086ED92E00E94AA32892BA9F088E0E6EDC2
:10332000F2E0AFE3B3E001900D928A95E1F7E0910E
:103330001607F0911707309731F00280F381E02DE6
:1033400086ED92E009940895EF92FF920F931F93F8
:10335000CF93DF93EC018A85811134C0EB80FC8030
:1033600087E5F81A26E12E9DC0012F9D900D1124AE
:10337000DC01A45FB94F1496ED91FC91159730973D
:1033800031F054966D917C918E5E994F099586E14E
:103390008E9D80018F9D100D1124045F194FF8013F
:1033A00087810E944B0FF80180850E94440F0E9484
:1033B0005619188219861B861E821D8210920B06D2
:1033C00010920A06DF91CF911F910F91FF90EF901D
:1033D0000895CF93DF93EC01898981111BC081E0AF
:1033E000898B809108069F81892B809308068091A4
:1033F00009069885892B809309060E945619EA814F
:10340000FB81309739F06C897D89CE010696DF917A
:10341000CF910994DF91CF91089590E080E00E94D0
:10342000690690E080E00E945306109209060E940F
:10343000561986E0E7E9F3E0DF011D928A95E9F786
:103440001092910310929003109292030C94010C2D
:10345000809347070C940D1A80914707982F967018
:10346000963019F488600C94281A877FFCCF21E0ED
:1034700030E001C0220F8A95EAF720958091470736
:1034800082230C94281A90913E038095892380937F
:103490003E03282F277091F4282F082E000C330BA1
:1034A0009217130659F09091630392FD07C085951A
:1034B000859585950E94371A0C94520F0895CF93E5
:1034C000C0916303C2FB992790F9981799F080FB8C
:1034D000C2F9C09363036091620384E090E00E94AC
:1034E000EC326C2F82E290E00E94EC3282E0CF91CD
:1034F0000C94431ACF91089521E030E001C0220FCF
:103500008A95EAF780914707822B0C94281A9091AC
:10351000630392FD10C098E0899F90011124622BF3
:1035200060933E030E947C1A0E942D0690933D03F7
:1035300080933C0308950C947C1A80934A030C9466
:103540000D1A10920806E8EDF2E086E0DF011D9208
:103550008A95E9F70C940D1A1F93CF93DF93CDB79B
:10356000DEB7AA970FB6F894DEBF0FBECDBF81E3DA
:1035700097E02091F100DC012D93CD01B7E0893374
:103580009B07B9F780913207833009F472C0B8F411
:10359000813009F449C0823009F4B3C08091E80059
:1035A00083FF96C280913107909132079A3008F0DC
:1035B0008FC2E92FF0E0E455FC4C0C9438328A308D
:1035C00009F48EC08B3009F471C0893039F78091CD
:1035D0003107813219F780913507909136070097AE
:1035E00011F00297D9F68091E800877F8093E80078
:1035F0008091E80082FF38C09091F3008091F20042
:10360000029731F48091F100813011F0863021F47D
:103610008091F100809324078091E8008B7780935C
:10362000E8000E940A05BACF80913107813A09F07B
:10363000B5CF8091E800877F8093E80080913507BF
:1036400090913607892B61F468E085E297E070E09D
:103650000E94BC058091E8008B778093E8009ECFA4
:1036600060E090E080E0F3CF80912F078111C0CF20
:1036700095CF80913107813A09F090CF809135073D
:1036800090913607892B09F089CF8091E800877FD8
:103690008093E8008091E80080FFFCCF80911801C2
:1036A0008093F1008091E8008E77B9CF8091310747
:1036B000813209F073CF8091350790913607892BBD
:1036C00009F06CCF8091E800877F8093E8000E942A
:1036D0000A0580913307809318010E94A11A5ECFDA
:1036E00080913107813209F059CF8091E800877FBE
:1036F0008093E8000E940A05809134078093230795
:103700004DCF80913107813A09F048CF8091E80090
:10371000877F8093E8008091E80080FFFCCF809154
:103720002307BECF803899F0823809F0D1C180914B
:1037300035078F70873008F0CBC18093E900809106
:10374000EB0085FB882780F91092E90006C0809184
:103750002D0790912E07911182609091E800977F3C
:103760009093E8008093F1001092F1008091E800BE
:103770008E77AAC1882309F498C1823009F0A8C1C4
:103780008091330781119BC1809135078F702FEF96
:10379000280F263008F09CC18093E9002091EB00AF
:1037A00020FF8DC1933031F48091EB0080628093D3
:1037B000EB0085C19091EB0090619093EB0021E0CC
:1037C00030E001C0220F8A95EAF72093EA001092B8
:1037D000EA008091EB008860EACF811179C11091F5
:1037E00033071F778091E3008078812B8093E3007B
:1037F0008091E800877F8093E8000E940A0580910D
:10380000E80080FFFCCF8091E30080688093E300B4
:1038100082E0111183E080932F075AC180588230D3
:1038200008F056C120913307309134072C3DE3E076
:103830003E07A1F583E08A838AE289834FB7F89433
:10384000DE01139620E03EE051E2E32FF0E05093DA
:103850005700E49120FF03C0E295EF703F5FEF70E7
:103860008E2F90E0EA30C0F0C7968D939D932F5F26
:10387000243159F74FBF8091E800877F8093E8009B
:103880006AE270E0CE0101960E94BC058091E800DA
:103890008B778093E8001CC1C096E7CF80913507F5
:1038A00090913607432F55274330510509F44AC0FC
:1038B00078F54130510509F485C08BE590E0EBE9DE
:1038C000F7E04230510509F003C12091E800277F5D
:1038D0002093E8002091370730913807821793072B
:1038E00008F49C0140E02115310509F070C0411138
:1038F0006EC08091E80082FDC9CF80912F07882398
:1039000029F2853019F28091E80083FFF2CFBECF13
:103910004132510509F447C04232510509F0D8C07F
:103920008330910508F0D4C0FC01EE0FFF1FE5586D
:10393000FE4F0190F081E02D88589E4FDC018C9164
:1039400090E01DC0332721303105E9F02115310504
:1039500079F022303105F9F02330310509F0B8C093
:10396000E8E0F8E0E4918E2F90E0E8E0F8E007C0AE
:10397000E0E5F8E0E4918E2F90E0E0E5F8E00097D4
:1039800009F4A6C0A2CFECE3F8E0E4918E2F90E01A
:10399000ECE3F8E0F4CFE6E2F8E0E4918E2F90E07B
:1039A000E6E2F8E0ECCF8330910508F091C0880F93
:1039B000991FFC01EF57FE4F0190F081E02D89E047
:1039C00090E083CF82E190E0E6EFF7E07ECF809158
:1039D0002F07882309F45ACF853009F457CF8091F7
:1039E000E80083FD53CF8091E80082FD82CF809173
:1039F000E80080FF78CF9091F3008091F2002115CC
:103A0000310519F08830910550F041E0089709F030
:103A100040E08091E8008E778093E80064CF449185
:103A20004093F1003196215031090196E8CF80385A
:103A300009F04EC08091E800877F8093E800809174
:103A400030078093F10092CE811142C0109133076C
:103A50001230F0F58091E800877F8093E8001093A2
:103A600030070E940A05112311F084E005C08091FF
:103A7000E30087FDFACF81E080932F0742E061ECFD
:103A800081E00E94290542E261EC84E00E94290560
:103A900042E261EC82E00E94290542E260EC83E0B0
:103AA0000E94290580912F0713C080913307813030
:103AB00079F481E0933009F080E080932E07109232
:103AC000E9008091E800877F8093E8000E940A0562
:103AD0008091E80083FF0AC08091E800877F80938F
:103AE000E8008091EB0080628093EB00AA960FB60D
:103AF000F894DEBF0FBECDBFDF91CF911F91089527
:103B0000882321F00E94440F0C94561908958823AD
:103B100039F090910906982B909309060C94561948
:103B20000895882321F00E944B0F0C945619089594
:103B3000882339F090910806982B909308060C94EE
:103B4000561908958823B1F19CEF980F913A70F4BB
:103B5000E8EDF2E09191891303C0DF0111971C9207
:103B600092E0EE3DF907B1F70C94561990E2980FE8
:103B7000983050F4877091E001C0990F8A95EAF768
:103B8000892F0E944B0FF0CF9BE5980F933020F4C4
:103B900090E080E00C94690698E5980F973120F446
:103BA00090E080E00C945306803F20F00E94280CA7
:103BB0000C94010C0895CF93C82F882309F456C0A4
:103BC0008CEF8C0F813AF8F4E8EDF2E08EED92E0A4
:103BD000DF012D91C21759F08A179B07D1F76C2F7F
:103BE00086ED92E00E943906CF910C9456192191EE
:103BF000C21303C0DF0111971C928E179F07B9F7FC
:103C00000E945619ECCF80E28C0F883068F4C770A0
:103C100021E030E001C0220FCA95EAF78091080642
:103C2000822B80930806E0CFEBE5EC0FE33040F405
:103C3000F0E0E85DFE4F808190E0CF910C94690642
:103C4000E8E5EC0FE73150F4F0E0EE0FFF1FE55D23
:103C5000FE4F80819181CF910C945306C03F30F08C
:103C60008C2F0E94ED0CCF910C94010CCF910895F4
:103C70001F93CF93DF93182FD0E0C0E0893311F466
:103C8000C0E5D0E0812F0E94DB1D209731F4812F09
:103C9000DF91CF911F910C94A21D8FE99FE00197B6
:103CA000F1F700C000002197F0CF0F931F93CF933F
:103CB000DF93C62FD42F022FFC0182818823A1F02D
:103CC00060933F070E942D0690933E0780933D0727
:103CD000C77081E001C0880FCA95EAF7DF91CF91E4
:103CE0001F910F910C94981D80913F07681335C068
:103CF00080913D0790913E070E941E06883C9105E9
:103D000060F510E21D0FCD17B9F080E28C0F8830FE
:103D100040F4C77081E001C0880FCA95EAF70E949D
:103D2000911D183048F481E09D2F977001C0880FD5
:103D30009A95EAF70E94981D802F0E94381E18302D
:103D400098F4D77081E001C0880FDA95EAF7DF9127
:103D5000CF911F910F910C94911DC77081E001C00C
:103D6000880FCA95EAF7F3CFDF91CF911F910F919A
:103D70000895AF92BF92CF92DF92EF92FF920F938E
:103D80001F93CF93DF93EC018AE0A82E2881222392
:103D900009F48CC02130C9F599818A81913021F4D0
:103DA00022960E94381E05C0923029F422960E9465
:103DB000DB1D2196EBCF933021F422960E94A21DA9
:103DC000F8CF943011F02196F4CF229630E020E025
:103DD000AE014F5F5F4F8053990B8A30910550F0D1
:103DE0002150310930F38FE99FE00197F1F700C0CE
:103DF0000000F6CFA29EB001A39E700D11249C017D
:103E0000260F371F8981EA01E3CFE22FF0E0E1546A
:103E1000FE4FB490822F86958695869590E0FC01A2
:103E2000E155FE4FE4902770F12C022E02C0F5946C
:103E3000E7940A94E2F731E0E322FF24FC01E15623
:103E4000FE4FC490D12C022E02C0D594C7940A9480
:103E5000E2F731E0C322DD24FC01E157FE4F04917B
:103E600010E002C0159507952A95E2F70170112719
:103E7000E114F10419F081EE0E94DB1DC114D1049C
:103E800019F086EE0E94DB1D8B2D0E94381ECD2876
:103E900019F086EE0E94A21DEF2819F081EE0E9413
:103EA000A21D012B09F485CF8CE27BCFDF91CF914E
:103EB0001F910F91FF90EF90DF90CF90BF90AF9048
:103EC000089590E080E00E94D632893E9E4F11F422
:103ED0000C94B61280E0089569EE7EEF90E080E0E9
:103EE0000E940A3360E082E090E00E94EC3260E0E1
:103EF00083E090E00E94EC3210924A0360E084E09C
:103F000090E00E94EC3260E082E290E00E94EC32AD
:103F100060E085E090E00E94EC3260E086E090E0B6
:103F20000E94EC326FEF87E090E00E94EC3240E0BC
:103F300050E0BA0188E090E00E94FE3260E08DE03F
:103F400090E00E94EC3240E050E0BA0188E190E05D
:103F50000E94FE3260E087E190E00E94EC3240E097
:103F600050E0BA018CE190E00E94FE3270E060E027
:103F700080E290E00E940A3340E050E0BA0188E11C
:103F800090E00E94FE3280E00E9407110E9497118B
:103F900040E050E0BA018FE090E00E94FE3240E045
:103FA00050E0BA0183E190E00C94FE328F929F9230
:103FB000AF92BF92CF92DF92EF92FF920F931F9337
:103FC000CF93DF9300D000D00F92CDB7DEB77C0146
:103FD000DC0113968D919C911497892B39F08C916B
:103FE00011969C9189238F3F09F0F0C50F900F9097
:103FF0000F900F900F90DF91CF911F910F91FF9035
:10400000EF90DF90CF90BF90AF909F908F900895EA
:104010000E945B12182F682F89819A810E94960F47
:1040200069817A81812F0E943F128C01F701828180
:10403000811135C0D70112968C9181116EC000316B
:10404000FFE51F0709F42FC101312FE5120709F41D
:104050002EC16801E7E5DE1A882309F42AC1FFEFC3
:10406000CF16D10409F008F456C1033FFCE51F0741
:1040700009F423C208F00CC2083D3CE5130709F41B
:1040800018C2093D4CE5140709F423C2073D5CE55D
:10409000150709F088C126E241EE61EE06C2809163
:1040A000100190911101019629F26CE0C62E66E094
:1040B000D62EB12CA12C992493948091100190912B
:1040C00011018A159B050CF4B5CFF6018681882372
:1040D000E9F0818592850817190739F480910A065D
:1040E00090910B060817190789F0D6011F969C922C
:1040F0001F971C961C930E931B97C6010E94E919EB
:10410000C60106960E94A41910920906BFEFAB1AC9
:10411000BB0AE6E1CE0ED11CD0CF980122513F451B
:104120002031310508F046C58FEF93E00E94CE3272
:104130005EEED52ED00E0BEB12E08823F9F08091C5
:104140003E03877009F452CFD70112968C918823D1
:1041500009F44CCF8091630382FD48CF82E00E9436
:10416000431A44CF0115F4E01F0749F3C8010E9428
:10417000CE32811101C0DA940F5F1F4FD110F2CF00
:1041800019821A821B821C8299249A9468012FEF4B
:10419000C21AD20AC8010E94CE3289831A828823A9
:1041A00071F2813009F073C0580132E0A30EB11CE6
:1041B000C6010E94CE32C82E8A83882309F4BFCF5D
:1041C000C5010E94CE32D82E8FEF8C0D833068F45B
:1041D000580143E0A40EB11CDB82DD2021F0CE01AA
:1041E00001960E94B91E8501D1CF8BEF8C0D8330D3
:1041F00030F5C8010396DB825C01DD20A1F3580194
:1042000054E0A50EB11C0E94CE328C83882359F352
:104210008B819C818130AFEF9A0710F0982F88270F
:10422000B6E0CB1631F0E7E0CE1631F00E944E2A10
:10423000DACF0E94052AD7CF0E946529D4CFF4E0B7
:10424000CF12D1CF580124E0A20EB11CC8010396B1
:104250000E94CE32DD2009F472CF882309F46FCF9B
:104260008150990B989E9001999E300D11244D2DEF
:104270004150550BCA01820F931F019708F4B3CF29
:10428000AFE9BFE01197F1F700C00000F6CFCE0113
:1042900001960E94B91E5601A6CF81E00E947C1AA9
:1042A0000E942C1A4CCF81E00E94371AF9CF82E08D
:1042B000FBCF2FEFC216D10411F008F0D6CE6AEF73
:1042C00075E08C2D0E94A611892B29F586E18C9D25
:1042D000F0018D9DF00D1124E45FF94F868181304E
:1042E00009F0B0C08091FA059091FB05892B99F0F7
:1042F0008091FC059091FD05892B69F08091FE0568
:104300009091FF052091000630910106822B932B9E
:10431000892B09F4A1C080911001909111018C1595
:104320009D0524F4D0921101C0921001F701828101
:1043300096E19C9D50019D9DB00C11249501245F38
:10434000394F6901D90150968C93509792811696F6
:104350008C911697992309F48DC01A961C930E938D
:1043600019978F5F16968C930E942D06F6019687FB
:10437000858780914903878380910906909108067B
:10438000892B80870190F081E02D309741F0D60194
:1043900054966D917C91C5018E5E994F099510934D
:1043A0000B0600930A06F7018281882309F421C4D1
:1043B00010923F070330FDE51F0708F08DC00A3F4C
:1043C0002CE5120730F4C80182509C45449708F050
:1043D0008DC00E94CF1290936303809362030131DA
:1043E0005CE5150709F456C108F0D6C009309CE514
:1043F000190709F43DC108F0A3C00530BCE51B074F
:1044000009F42EC108F089C00330FCE51F0709F448
:104410001DC108F021C180916203816002301C45FA
:1044200009F417C1609162031091630384E090E086
:104430000E94EC32612F82E290E00E94EC320E94F6
:10444000A11A7DCE823009F066CF8091FE05909151
:10445000FF05892B09F45FCF26E12C9DC0012D9D1E
:10446000900D1124845F994FDC0150961C920E949C
:10447000E91951CF882309F496CFF901818988235E
:1044800009F491CFC5018E5E994F0E94A4198BCF7C
:10449000053F8CE51807C9F0A0F027E245EE66EE6F
:1044A000063FACE51A0709F07ECFC7010E94551EF2
:1044B00046CE27E245EE65EEF8CF26E241EE60EE0D
:1044C000F4CF27E245EE64EEF0CF26E241EE62EE55
:1044D000ECCF28E241E0EFCF01363DE5130709F4C8
:1044E00078CF053A4DE5140709F473CF0631ACE5F2
:1044F0001A0709F096C3809108068A7A91E009F4B8
:1045000090E09093DE0269E2811165E386ED92E02E
:104510000E9439060E94561912CE80916203806271
:1045200007304CE5140709F494C080916203806160
:1045300008301C4508F48DC080916203806489C0F6
:104540000D308CE5180709F499C098F48091620346
:104550008E7F0B30ACE51A0709F47BC080916203B3
:104560008C600C301C4508F474C0809162038D7F10
:1045700070C0809162038F7E0F30ECE51E0709F456
:1045800068C080916203877F00311C4508F461C0D8
:10459000809162038F7D5DC00D3F2CE5120709F409
:1045A00075C038F505314CE5140709F481C080F475
:1045B00003318CE5180709F477C008F46FC00E9436
:1045C000A11A90916203892F97FB87F9805841C007
:1045D0000B3FACE51A0709F447C008F053C08091BF
:1045E000630381600A3F1C4509F01CCF809363037D
:1045F00019CF0130FDE51F0709F466C0B8F48091BA
:1046000063038C7F0F3F3CE5130781F380916303C5
:10461000836001151D4550F380916303982F909599
:1046200091708E7F892B90FB81F9E0CF01365DE59B
:10463000150709F44FC0053A8DE5180709F451C074
:1046400002301D4509F0EECE60E03FC0809162036C
:10465000826080936203E6CE809162038460F9CF2A
:10466000809162038860F5CF809163038260BECF42
:104670000E94A11A809162038068EBCF809162034F
:104680008B7FE7CF809163038E7FB0CF80916303F0
:104690008D7FACCF809162038F7BDBCF0E94A11A0C
:1046A000809162038F77D5CF80916203837FD1CFD2
:1046B0008091620382FB992790F921E0922790FB79
:1046C00082F990FB83F9C5CF61E08EE090E00E9413
:1046D000EC32A8CE90916203892F8F7E94FF806187
:1046E000B8CF90916203892F8E7F90FF8160B1CF08
:1046F00085E389C244E057E06DE077E00E948B06D5
:104700001ECD4DE057E064E077E0F8CF42EF56E091
:104710006BEF76E0F3CF4BEF56E062EF76E0EECF53
:104720004AED56E066EE76E0E9CF46EE56E06AEDF9
:1047300076E0E4CF4EEC56E062EC76E0DFCF46EA7E
:1047400056E064EB76E0DACF44EB56E066EA76E0DA
:10475000D5CF81E00E946404F2CC8DE0FBCF0E94B3
:10476000A11ABFEFE4E3FCE0B150E040F040E1F714
:1047700000C000000E94771081E073C280E071C227
:10478000C8010E94690FD82E7DC2E12FEF70DE2E86
:10479000107F19F0D29490EFD922CC20B9F0DD200F
:1047A00069F080E2800F883010F0811009C080919C
:1047B0000806D82AD09208060E945619802F45C0B4
:1047C00080910906D82AD0920906F6CF802F0E9440
:1047D000A21DDD20E1F1005E8D2D083010F081106A
:1047E00003C00E944B0F02C00E94440F0E94561942
:1047F0002EC0F12FFF70DF2E107F103219F0D294EF
:1048000080EFD822882089F021E0821609F487C041
:10481000CC2009F490C0BB2009F465C0F701858164
:1048200080FFCCCF8F7085835EC08091630382FF51
:1048300035C0CC2061F1DD2039F080910806D82AFE
:10484000D09208060E94561980E00E94DB1DA92D17
:10485000A850BB0B149710F40E947F06AA2009F4FD
:10486000C5CB80913E0380FDC1CBF70112828595B7
:10487000859585950E947C1AC7010E94D61F80915C
:104880003E038595859585950E94371AAFCB80E0CC
:104890000E94A21DDD20D9F28D2DA3CFCC2039F1AD
:1048A000B11004C0809149038D291EC031E0B312BC
:1048B00010C082FDCCCF80914903D82AD81639F296
:1048C0000E942D069093480380934703D09249039A
:1048D000BECF45E0B412E6CF0E94390F80913B0372
:1048E000D812D0923B038D2D0E94981DB0CFB110ED
:1048F00006C00E94390F8D2D0E94911DA8CF51E056
:10490000B51208C0809108068D2109F4A0CF0E943D
:10491000590FEFCF85E0B81609F499CFEACFCC2034
:1049200029F095E09B1508F492CFDDCFA4E0AB15FC
:1049300008F48DCFE0CFBB20F1F2F9E38F1209C06C
:104940002FEF37EE43E0215030404040E1F700C008
:104950000000802F0E94A21D7ACF812F8695869518
:10496000837061F0813009F072CFC8019370C1107B
:1049700002C090E080E00E94530669CFC8019370A6
:10498000C11002C090E080E00E94690660CF802FD5
:10499000CC2029F00E94ED0C0E94010C58CF0E94FF
:1049A000280CFACF812F837089F5C11050CF402F8A
:1049B000429546954770440F440F802F8F70042E08
:1049C00001C0880F0A94EAF7202F207104FF07C066
:1049D0002FE030E001C0220F4A95EAF720951695A6
:1049E00016951370123069F050F430914A0311306B
:1049F00029F0822B83230E949D1A29CF832B822B9F
:104A0000FACF282B80914A038227F5CF8695CC20B8
:104A100011F0812F8170882309F419CF402F42951E
:104A200046954770440F440F802F8F70042E01C0AD
:104A3000880F0A94EAF7202F207104FF07C02FE0A7
:104A400030E001C0220F4A95EAF720951695169599
:104A50001370123069F050F430914707113029F08B
:104A6000822B83230E94281AF2CE832B822BFACF2B
:104A7000282B809147078227F5CF1F70CC2029F083
:104A8000812F0E947C1A802F2FCF802F0E94911D92
:104A9000812F0E94371ADBCE802F52EF8516A9F1A5
:104AA000581570F090EF8916D1F0A1EF8A1691F0A9
:104AB000CC2009F46FC0B11081CE812F8F7129C035
:104AC000B3EF8B1649F1E4EF8E12F2CF80916303BE
:104AD00082FF2DC0812F8F71CC20D9F21AC0CC203B
:104AE00079F0F4E0FB1508F4B2CE1F7181E090E09C
:104AF00001C0880F1A95EAF7909147078927B2CF2E
:104B000025E02B1508F4A3CEF0CF812F8F71C110B3
:104B1000C0CF0E947C1A9BCE80E0CC2009F4A2CFAB
:104B20001F7181E001C0880F1A95EAF79BCF809131
:104B30003B03CC20D9F00E944B0F80913E0387703D
:104B4000843041F40E94520F812F8F710E94371AD6
:104B5000A12C7DCE34E03B15D8F31F71812F0E942C
:104B60007C1A63E0812F0E94871AF2CF9091080689
:104B7000982B9093080644E04B1540F40E94520F86
:104B80000E94590F64E0812F8F71EDCF81E00E9468
:104B9000431ADECFBB2059F0893309F0DACE5FEF3C
:104BA00087EE93E0515080409040E1F7D0CE812FC6
:104BB0008F716FCF00313FE5130709F46ECB0131E0
:104BC0004FE5140709F045CA82E068CB85E0F7019C
:104BD000DE01119601900D928A95E1F7D7011296A8
:104BE0002C9189819A81211113CA0E94690F182F73
:104BF00017CA0631BCE51B0709F080C08091DE02B0
:104C0000811176CD89E2E8EDF2E02EED32E091916E
:104C1000891303C0DF0111971C922E173F07B9F7C4
:104C200079CC0A35EDE51E0709F4A6CD58F4011537
:104C30002CE5120709F493CD0E3D1C45A1F40E940A
:104C40006C1F7DCA0B354DE5140709F497CD0C3563
:104C50001D4549F48091630382FB882780F991E028
:104C600089270E945F1AF7018281008111818823C0
:104C700009F486CDC8010E945B12D82E682FC801A6
:104C80000E94960FB8018D2D0E943F120E94B10D17
:104C90008C01882ED7011296CC9012971596BC9055
:104CA000B2943FE0B32280913E038770C1F0AC2CF8
:104CB000CC20B1F0812F807F803421F080E2800F02
:104CC000883068F08091630382FD09C082E00E9411
:104CD000431A80913E038770AA24A3948111A12CCA
:104CE000912E92942FE09222BBE0B91508F4AFCD3B
:104CF000E92DF0E0EA54FC4C0C943832809108061F
:104D000082720A3C9CE5190709F414CDA0F5053C14
:104D1000BCE51B0709F4FACCC8F4033CFCE51F070B
:104D200009F4E8CC08F0EDCC023C1C4509F09BCF1F
:104D30008091410791E089278093410710921C01DF
:104D400080914007816080934007F9C9073C4CE59A
:104D5000140709F4E5CC08F4DECC083C9CE51907FF
:104D600009F4E3CC42EC56E06EEC76E0093C1C45DD
:104D700009F4C4CC78CF0F3CBCE51B0709F4EDCC9B
:104D800090F40C3CFCE51F0709F4DECC08F4D7CC0A
:104D90000D3C3CE5130709F4DCCC85E00E3C1C45DA
:104DA00009F4D8CC60CF063D5CE5150730F4013D31
:104DB0001C4508F0C4C982E1CDCC0D351D4509F470
:104DC000BEC951CF1F93CF93DF9380910803807F9B
:104DD000A9F480910503882389F080913A03D0914A
:104DE00009036091030370910403A0910603B0913D
:104DF0000703C62FC72316E0D81304C0DF91CF9155
:104E00001F91089590E0109711F0CF3F19F401968B
:104E10008770F2CF189F9001199F300D1124F9016E
:104E2000E65FFC4F41814713F2CF40814613EFCF3D
:104E300042814111ECCF438154814A1B5B0B483CBA
:104E4000510528F7809108038F70806180930803D3
:104E5000F901E15FFC4F80818F708061808383E086
:104E600093E00E94D61FDF91CF911F910C945F0FAA
:104E7000AF92BF92CF92DF92EF92FF920F931F9368
:104E8000CF93DF93CDB7DEB761970FB6F894DEBF4F
:104E90000FBECDBF8C0185E0F801DE011D960190AB
:104EA0000D928A95E1F7F801E28083E0A82E83E075
:104EB000B82E60910603709107036115710509F41E
:104EC00032C19091030340910403892F84238F3FC3
:104ED00009F429C120813181C380D480F090050379
:104EE000F601E61BF70BFF2009F4E8C080910803E8
:104EF000582F507FE83CF10508F0ABC0511177C046
:104F0000FE2C431321C092131FC0E1101DC08F70EF
:104F1000806180930803C5010E94D61F8091080319
:104F2000F80185838F2D61960FB6F894DEBF0FBE12
:104F3000CDBFDF91CF911F910F91FF90EF90DF9048
:104F4000CF90BF90AF900895CD2829F0822F832372
:104F50008F3F09F003C180E0F82FF170DF2E80FF52
:104F60003CC080913A034091090356E0841315C078
:104F70002D873E878D859E850E948A12292F229536
:104F80002F702230F0F0243018F59F70F1F0F80106
:104F90009581907FD1F4D12C1EC090E0589FF001F4
:104FA000599FF00D1124E65FFC4F6181361306C056
:104FB0006081261303C06281E6120FC001968770DC
:104FC000D5CF9F7011F0882331F3805E883018F3BD
:104FD000C8010E94D61FFD2CA5CFEE2009F4A2CF58
:104FE00080910803816080930803F12C9BCF4313C9
:104FF00006C0921304C0F801EE2009F479C0C8017C
:105000000E949612882309F1EE20F9F0809108039E
:10501000803270F0209103033091040338872F838E
:105020001986DB86CA868C87CE0107960E94D61F1A
:1050300086E0F801A3E0B3E001900D928A95E1F7D4
:105040000E94E226FF24F3946DCFC8010E94D61F70
:10505000F9CF51110AC083E093E00E94D61F86E089
:10506000F50111928A95E9F7C0CF43130FC092134F
:105070000DC0E1100BC0F8018583C8010E94D61F46
:1050800086E0F50111928A95E9F74CCFC8010E949C
:1050900096128823D1F2EE20C1F28091080380326B
:1050A00038F220910303309104033A8329831B8251
:1050B000DD82CC828E83CE010196B8CFE83CF1052B
:1050C000F8F6FE2CEE2009F243131FC092131DC008
:1050D0008091080380FD10C0982F907F69F0F8013F
:1050E0008583903F31F0982F907F905F8F70892B50
:1050F0008583C8010E94D61F86E0F801A3E0B3E0D3
:1051000001900D928A95E1F70DCFC8010E94961289
:1051100081118ECF80910803816080930803C801BC
:105120000E94D61FFFCEEE2009F48FCFC8010E9447
:105130009612F82E882309F488CF86E0F801A3E0C0
:10514000B3E001900D928A95E1F78091030390916D
:1051500004030E948A120E94E226E4CE81E08E259A
:10516000FBCE1F93CF93DF93CDB7DEB767970FB614
:10517000F894DEBF0FBECDBF4B8B5C8B6D8B7E8BEF
:105180008F8B6111109209061A8A198A85E0FE0137
:105190007396DE011D9601900D928A95E1F780913C
:1051A000630382FD1CC00E942D0620913C033091B8
:1051B0003D03821B930B8838934120F080913E037E
:1051C00082FF7FC00E942D06209147033091480343
:1051D000821B930B8838934110F00E94390F86E0B0
:1051E000FE013D96DE01179601900D928A95E1F73A
:1051F000CE0107960E943827882389F016E0809117
:105200003A0390910903891349C067960FB6F89441
:10521000DEBF0FBECDBFDF91CF911F91089586E015
:10522000FE013796DE01119601900D928A95E1F705
:105230008A859B85892B11F38F81988589238F3FE0
:10524000E9F22091090330E0C9010196877099279E
:1052500040913A034817190671F40E94A11A10925E
:10526000090310923A0386E0E3E0F3E0DF011D92C8
:105270008A95E9F7C3CF96E0929FD001939FB00D36
:105280001124A65FBC4FFE01319601900D929A95B4
:10529000E1F7809309030E945F0FB0CF819FC001A7
:1052A0001124865F9C4F0E943827882309F4ADCFD4
:1052B00080913A0390E001968770992780933A0392
:1052C0009ECF82E00E94431A7DCF0F931F93CF930E
:1052D000DF9300D000D00F92CDB7DEB78C01909352
:1052E000050680930406011580E2180720F5802F3B
:1052F0000E94A21DC8010E94C60F9801205E3109BC
:105300002830310510F0012B59F40F900F900F90B9
:105310000F900F90DF91CF911F910F910C94911DE1
:105320000F900F900F900F900F90DF91CF911F91E2
:105330000F910C94801D8EEF89838A831B820E94BB
:105340002D068160782F9D838C8349815A816B81E2
:105350008D810F900F900F900F900F90DF91CF9154
:105360001F910F910C94B1280F931F93CF93DF934C
:105370008C01EB016AEF75E08C2F0E94A611892B3E
:1053800071F4DD27C251DA4F8881F801108218824A
:10539000833009F148F4813059F0823081F0DF9197
:1053A000CF911F910F9108958430D1F08530B9F7D6
:1053B0008091FA059091FB05009789F306C08091D2
:1053C000FC059091FD05009799F3DF91CF911F9116
:1053D0000F910C9465298091FE059091FF05F3CF04
:1053E0008091000690910106009779F72091FA05C7
:1053F0003091FB058091FC059091FD05211531054B
:10540000D9F2009711F7C901E0CF0F931F93CF9303
:10541000DF9300D000D00F92CDB7DEB78C01909310
:10542000050680930406011580E21807E8F4C80118
:105430000E94C60F9801205E31092830310518F00E
:105440000115110571F40E94981D802F0F900F9087
:105450000F900F900F90DF91CF911F910F910C94AF
:10546000DB1D0E94871DF1CF8EEF89838A8381E047
:105470008B830E942D068160782F9D838C834981C8
:105480005A816B818D810F900F900F900F900F902C
:10549000DF91CF911F910F910C94B128CF93DF939F
:1054A000EC010E94052ACE01DF91CF910C94652971
:1054B0000F931F93CF93DF938C01862F6AEF75E0D4
:1054C0000E94A611892BC9F4C091FA05D091FB0561
:1054D000209799F0F8018081833069F4CE010E9411
:1054E0004E2ACE010E944E2ACE01DF91CF911F910C
:1054F0000F910C944E2A8430B8F7DF91CF911F9111
:105500000F9108950F931F93CF93DF938C01EB01BD
:105510006AEF75E08C2F0E94A611892B09F064C0F8
:10552000FE01FF27D8018C91E251FA4F8130D9F466
:1055300019969C911997992311F080830CC01A96A3
:105540009C919923D1F382E080838091FC05909116
:10555000FD050097D9F48091FA059091FB0500971D
:1055600009F442C013C08230E9F519968C9119975D
:1055700081112DC01A968C9181110EC083E0808319
:105580008091FE059091FF05009719F1DF91CF9171
:105590001F910F910C94052A84E08083809100066E
:1055A00090910106009791F78091FA059091FB0583
:1055B0000097F9F00E944E2A8091FC059091FD051C
:1055C000009721F78091FA059091FB05DFCF85E0E8
:1055D00080838091FA059091FB05009729F00E9445
:1055E0004E2AF0CF86E08083DF91CF911F910F91FB
:1055F00008958091FC059091FD05B1CF1F920F9207
:105600000FB60F9211242F933F934F935F936F9395
:105610007F938F939F93AF93BF93CF93DF93EF933A
:10562000FF93D091E900DF708091EC00C82FC1702A
:1056300080FDC0E81092E9008091F000877F8093A0
:10564000F00078940E94AC1A1092E9008091F0006A
:1056500088608093F000CD2BCF70C093E900FF915C
:10566000EF91DF91CF91BF91AF919F918F917F91FA
:105670006F915F914F913F912F910F900FBE0F90BF
:105680001F9018951F920F920FB60F9211242F930F
:105690003F934F935F936F937F938F939F93AF93BA
:1056A000BF93EF93FF938091E10082FF09C0809147
:1056B000E20082FF05C08091E1008B7F8093E100D2
:1056C0008091DA0080FF24C08091D80080FF20C044
:1056D0008091DA008E7F8093DA008091D90080FF7C
:1056E0009DC080E189BD82E189BD09B400FEFDCF86
:1056F00081E080932F0780912207811109C00E94C9
:1057000090040E945B058091E20084608093E20037
:105710008091E10080FF17C08091E20080FF13C0FC
:105720008091E2008E7F8093E2008091E2008061B0
:105730008093E2008091D80080628093D80019BCE9
:1057400085E080932F078091E10084FF2BC080913A
:10575000E20084FF27C080E189BD82E189BD89B56F
:10576000982F917080FFFBCF8091D8008F7D809320
:10577000D8008091E1008F7E8093E1008091E2006B
:105780008F7E8093E2008091E20081608093E2004E
:1057900080913007882309F447C084E080932F0765
:1057A00080912F078091E10083FF27C08091E20064
:1057B00083FF23C08091E100877F8093E10082E036
:1057C00080932F07109230078091E1008E7F8093A5
:1057D000E1008091E2008E7F8093E2008091E20000
:1057E00080618093E20042E060E080E00E94290551
:1057F0008091F00088608093F000FF91EF91BF915D
:10580000AF919F918F917F916F915F914F913F9158
:105810002F910F900FBE0F901F90189519BC1092EA
:105820002F071092220774CF8091E30087FD93E049
:1058300090932F07B5CF78941F921FB61F92112413
:105840008F939F93AF93BF9380911B0790911C07F9
:10585000A0911D07B0911E070196A11DB11D809357
:105860001B0790931C07A0931D07B0931E07BF91C1
:10587000AF919F918F911F901FBE1F9018951F92FF
:105880001FB61F9211248F939F93AF93BF93809164
:105890001A07811113C080911B0790911C07A091DA
:1058A0001D07B0911E074196A11DB11D80931B07D6
:1058B00090931C07A0931D07B0931E07BF91AF9153
:1058C0009F918F911F901FBE1F901895CDB7DEB787
:1058D000E6970FB6F894DEBF0FBECDBF84B7877FC3
:1058E00084BF0FB6F894A89580916000886180937A
:1058F0006000109260000FBE80E890E00FB6F89450
:1059000080936100909361000FBE85B7806885BF6A
:1059100085B7806885BF85E59DE09093D50280932B
:10592000D4020E94BA110E9490040E945B058091EB
:10593000E20084608093E200789480912F078823AE
:10594000A1F01091E9001F709091EC00892F8170F7
:1059500090FD80E8182B1092E9008091E80083FD0B
:105960000E94AC1A1F701093E90082E084BD93E09E
:1059700095BD9AEF97BD80936E000E94B61281117B
:1059800002C00E94971109E511E07EE5E72E71E063
:10599000F72ED8018D918D018F3F11F00E94570D88
:1059A000E016F106B1F70EE511E060E7E62E61E0E2
:1059B000F62EF80181918F018F3F11F00E94570D53
:1059C000E016F106B1F784E1ECE7F3E0DF01282F00
:1059D0001D922A95E9F7EEE4F3E0DF011D928A9526
:1059E000E9F70E94611F811102C00E946C1F82E0D2
:1059F00090E00E94CE32809364030E94CF12909375
:105A00006303809362030E947218BFEFE6E7F1E040
:105A1000B150E040F040E1F700C000000E94721871
:105A200080917C0380FF08C06FEF7FEF90E080E003
:105A30000E940A330E94771083E090E00E94CE32E9
:105A40000E949D1A0E94611F811104C00E946C1F58
:105A50000E94571846E050E06CE170E081E497E066
:105A60000E94BE3210924007809141078C7F11F452
:105A70000E94571884E091E09093170780931607CF
:105A800050E9252E53E0352E80912F07853089F47B
:105A900030E4F32E43E0E42E00E112E180912F0781
:105AA000853009F43FC10E94A11A0E947F0610921E
:105AB000FA040E947218882359F08FB7F894409125
:105AC0001B0750911C0760911D0770911E078FBF27
:105AD000ACE7B3E0BEABADABE5E6F3E010E000E071
