:100000000C9452030C948A030C948A030C948A0374
:100010000C948A030C948A030C948A030C948A032C
:100020000C948A030C948A030C94A9250C946525DE
:100030000C94A6260C948A030C948A030C948A03CD
:100040000C948A030C948A030C948A030C948A03FC
:100050000C948A030C9482260C948A030C948A03D1
:100060000C948A030C948A030C948A030C948A03DC
:100070000C948A030C948A030C948A030C948A03CC
:100080000C948A030C948A030C948A030C948A03BC
:100090000C948A030C948A030C948A030C948A03AC
:1000A0000C948A030C948A030C948A0305010902B8
:1000B000A10185020901A1000509190129081500FE
:1000C0002501950875018102050109300931158165
:1000D000257F95027508810609381581257F9501D0
:1000E00075088106050C0A38021581257F95017572
:1000F000088106C0C005010980A101850319012AF4
:10010000B700150126B700950175108100C0050CD8
:100110000901A101850419012AA002150126A002E6
:10012000950175108100C00660FF0961A101096297
:10013000150026FF00952075088102096315002629
:10014000FF00952075089102C005010906A101056F
:100150000719E029E7150025019508750181029529
:1001600001750881010507190029FF150026FF0008
:100170009506750881000508190129059505750181
:100180009102950175039101C0000000000000007C
:10019000000000000000000000000000000000005F
:1001A000000000000000000000000000007E0F00C2
:1001B000D4FFFFFFC700000078000000000000002F
:1001C000002A2B28000000000000000000000000B2
:1001D0000000000029000000002C1E3420212224F1
:1001E000342627252E362D3738271E1F202122237F
:1001F0002425263333362E37381F04050607080911
:100200000A0B0C0D0E0F10111213141516171819D6
:100210001A1B1C1D2F3130232D3504050607080934
:100220000A0B0C0D0E0F10111213141516171819B6
:100230001A1B1C1D2F3130354C0001010101010139
:10024000010101020202020202020202030303038D
:10025000030303030404040404040405050505055D
:10026000060606060607070707070808080809091B
:1002700009090A0A0A0B0B0B0C0C0C0D0D0D0E0EC6
:100280000E0F0F0F10101111111212131314141559
:100290001516161717181819191A1A1B1B1C1D1DCD
:1002A0001E1E1F2020212222232424252626272823
:1002B00029292A2B2C2D2D2E2F3031323233343553
:1002C000363738393A3B3C3D3E3F40414243444556
:1002D000464748494A4C4D4E4F5051535455565835
:1002E000595A5B5D5E5F616264656668696B6C6DDF
:1002F0006F7072737577787A7B7D7E808283858755
:10030000888A8C8E8F91939596989A9C9EA0A2A392
:10031000A5A7A9ABADAFB1B3B5B7BABCBEC0C2C497
:10032000C6C9CBCDCFD1D4D6D8DBDDDFE2E4E7E957
:10033000EBEEF0F3F5F8FAFDFF165C1E001F00204F
:100340000021002200230024002500260027002D84
:10035000002E002A0053005400550056002B0014B4
:10036000001A000800150017001C0018000C0012ED
:100370000013002F00300031005F006000610000BA
:1003800000390004001600070009000A000B000DE8
:10039000000E000F0033003400280000005C005DF8
:1003A000005E005700E1001D001B0006001900055B
:1003B00000110010003600370038000000E5005240
:1003C0000059005A005B000000E000E300E200007A
:1003D0000000002C00000000000000E600E7000123
:1003E00051500051004F0062006300580001003A74
:1003F000003B003C003D003E003F00400041004209
:10040000004300440045000100C25CCB5C010001D8
:1004100000010001000100010001000100010001D4
:1004200000010001000100010001000100010001C4
:1004300000010000000100010001000100010001B5
:1004400000010001000100010001000100010000A5
:100450000001000100010001000100010001000194
:100460000001000100010001000100010001000085
:10047000000100C95C010001000100000001000151
:100480000001000000000001000000000000000169
:100490000002510100C35CC55CC75C0100010001A2
:1004A00000005C01000100010001000100010001E9
:1004B0000001000100010001000100010001000134
:1004C0000001000100010001000100010001000124
:1004D0000001000100010001000100010001000114
:1004E0000001000100010000000100010001000105
:1004F00000010001000100010001000100010001F4
:1005000000010000000100010001000100010001E4
:1005100000010001000100010001000100010001D3
:1005200000010000000100010001000100010000C5
:1005300000010001000100000000000100000000B7
:1005400000000001000100010001000100010001A4
:100550000001000100010001000100010001000193
:100560000001000100010001000100010001000183
:100570000001000100010001000100010001000173
:100580000001000100010001000100010001000163
:100590000001000100010001000100000001000154
:1005A0000001000100010001000100010001000143
:1005B0000001000100010000000100010001000134
:1005C0000001000100010001000100010001000123
:1005D0000001000100010000000100010001000114
:1005E0000001000000010001000100000000000106
:1005F00000000000000000010001000100010001F6
:1006000000010001000100010009025B000301007C
:10061000A0FA0904000001030101000921110100F1
:1006200001224000070581030800010904010002BE
:1006300003000000092111010001222200070582A8
:100640000320000107050303200001090402000143
:1006500003000000092111010001227B000705842D
:10066000032000011201000200000008EDFE60609E
:100670000001010200011403410043003900380069
:1006800030004D0069006E00690000001203620036
:100690006C006F0063006B0062006F007900000067
:1006A0000403090411241FBECFEFDAE0DEBFCDBF83
:1006B00004B603FE18C08091110690911206A09115
:1006C0001306B09114068730904BA740B04B59F4F5
:1006D0001092110610921206109213061092140630
:1006E000E0E0F8E3099526E0A8ECB2E001C01D9235
:1006F000A131B207E1F712E0A0E0B1E0ECE6F9E5E4
:1007000002C005900D92A83CB107D9F70E94CD26F2
:100710000C946C2C0C94000090910A06937061F07C
:1007200081110BC0946090930A0610921801809179
:10073000090681608093090608958F3110F098674B
:10074000F2CF880F880F982BEECF90910A06937006
:1007500071F080930B0660930C06473908F046E968
:1007600040930D06809109068160809309060895E3
:10077000E8EDF0E080818E7F80831092E20010929D
:10078000DA001092E100A0EEB0E08C9181608C93D1
:1007900080818F77808319BCA7EDB0E08C918E7F2C
:1007A0008C9380818F7E80831092EB050895209139
:1007B000E4003091E50095E6A9012091EC00822F3C
:1007C000817020FF06C08091E80080FF06C080E0B5
:1007D00008952091E80022FD1AC08091F805882331
:1007E00089F0853089F08091EB0085FD0FC0209164
:1007F000E4003091E50042175307F9F29150E1F619
:1008000084E0089582E0089583E0089581E00895EA
:10081000EF92FF920F931F93CF937C018B010E9465
:10082000D703C82F811117C08091E80085FD0BC048
:100830008091E8008E778093E8000E94D703882398
:1008400099F3C82F08C0F70181917F018093F100CF
:100850000150110949F78C2FCF911F910F91FF90F3
:10086000EF9008958091FA0587FF13C08091E8000A
:1008700082FF06C08091E8008B778093E80004C077
:100880008091F8058111F2CF08958091F8058823B1
:10089000D9F38091E80080FFF8CF8091E8008E774F
:1008A000ECCF982F9093E900242F762F50E08917F2
:1008B00031F07091EC002091ED005091F00021FD9D
:1008C00007C09F5F973071F78093E90081E008953A
:1008D0003091EB003E7F3093EB003091ED003D7F97
:1008E0003093ED003091EB0031603093EB0070936A
:1008F000EC002093ED005093F0002091EE0027FDD6
:10090000E0CF80E00895CF92DF92EF92FF920F93B5
:100910001F93CF93DF93C8EDD0E088818F7E8883CB
:10092000E7EDF0E080818160808384E082BF81E038
:100930008093EB0588818E7F888302EE10E0F801BA
:1009400010821092DA0081EEC82ED12CF6011082AE
:1009500088818F77888388818068888388818F7D6C
:10096000888319BC1092F8051092F9051092F705CA
:100970001092F60590EEE92EF12CF70180818B7F25
:10098000808388818160888342E060E080E00E940B
:100990005104F60180818E7F8083F801808181601F
:1009A0008083808188608083F70180818E7F80834F
:1009B000888180618883DF91CF911F910F91FF9093
:1009C000EF90DF90CF900895FC0180910006909108
:1009D000010686179707A0F06115710529F490911B
:1009E000E8009E779093E80090E06115710551F45E
:1009F000911108C08091E80082FF34C080E0089522
:100A0000BC01F2CF8091F8058823C1F18530C1F196
:100A10008091E80083FD30C08091E80082FDEACF3C
:100A20008091E80080FFE1CF8091F3002091F200F7
:100A3000382F6115710519F02830310558F091E013
:100A40002830310509F090E02091E8002E772093BE
:100A5000E800CBCF81918093F100615071092F5F45
:100A60003F4FE7CF8091F805882341F0853041F072
:100A70008091E80083FFBECF81E0089582E0089571
:100A800083E0089508958091ED0508959C014FB786
:100A9000F8948091E4059091E505A091E605B09168
:100AA000E7054FBF821B930B08952FB7F8948091F1
:100AB000E4059091E505A091E605B091E7052FBF0B
:100AC00008959C01FC0132969FEF80E0419146170A
:100AD00051F09F3F19F4411101C0982F8F5F86306C
:100AE000A9F79F3F09F40895290F311D97FD3A9505
:100AF000F901628308952091E1053091E2052817FC
:100B0000390771F09093E2058093E105E091DF05EC
:100B1000F091E005309721F00084F185E02D0994F3
:100B200008952091DD053091DE052817390771F011
:100B30009093DE058093DD05E091DF05F091E005FF
:100B4000309721F00680F781E02D09940895E09117
:100B5000DF05F091E005309721F00190F081E02D64
:100B6000099480E00895FA01811101C0FB01099404
:100B7000EAEEF4E0818360834283339695E0ED3DB5
:100B8000F907C1F70895FC01EE0FFF1FE80FF91FE9
:100B9000E651FB4F6183408322830895EAE0F6E04B
:100BA00024813AE0231B08F420E024838091090685
:100BB0008160809309060895EAE0F6E024813AE036
:100BC000230F08F42FEF248380910906816080931E
:100BD00009060895EAE0F6E0438128E0421B08F4A4
:100BE00040E08181628190E00C94A503EAE0F6E0A8
:100BF000438128E0420F08F44FEF8181628190E049
:100C00000C94A503EAE0F6E0628128E0621B08F498
:100C100060E08181438190E00C94A503EAE0F6E076
:100C2000628128E0620F08F46FEF8181438190E0D8
:100C30000C94A503EAE0F6E081814381628188504B
:100C4000990B0C94A503EAE0F6E0818190E04381E2
:100C5000628108960C94A50380910A068695869574
:100C6000815009F48EE10C948C0380910A068695DC
:100C700086958F5F8F3108F081E00C948C03E42F10
:100C8000F0E0EE0FFF1FEB52FE4F9081921B97FD9D
:100C90009195292F38E1239F212D1124620F08956A
:100CA0000F931F9310E0F801EE0FFF1FEB52FE4F62
:100CB0009081905797FD9195000F111FF801EA520E
:100CC000FE4F00810052110B2003F001219FF00D17
:100CD000112408E310E0091B110997FD1395400347
:100CE0009001419F300D1124E20FF31F9F01220F4D
:100CF000331F2E0F3F1F37FF02C021583F4F220FD7
:100D0000232F221F330B620F1F910F9108950F9312
:100D10001F93522F10E0F801EE0FFF1FEA52FE4F13
:100D2000A081A052BB0B9D015203F001539FF00D17
:100D30001124000F111FD801AB52BE4F0C91005768
:100D4000110B40039001419F300D11242E0F3F1FC6
:100D500037FF02C0215C3F4F96E0359527959A9565
:100D6000E1F7620F1F910F9108950F931F93522F78
:100D700010E0F801EE0FFF1FEA52FE4FA081A052D3
:100D8000BB0B9D015203F001539FF00D1124000F86
:100D9000111FD801AB52BE4F0C910057110B4003ED
:100DA0009001419F300D11242E0F3F1F37FF02C0CD
:100DB00021583F4F220F232F221F330B620F1F9109
:100DC0000F910895EF920F93972F23E0029FB001A8
:100DD0001124759567956E0D792F0F91EF900895F9
:100DE000322F50E0FA01EE0FFF1FEA52FE4F9081C2
:100DF000905297FD9195440F551FFA01EB52FE4F0B
:100E00002081231B330B290F311D97FD3A95620F6B
:100E10000895E42FF0E0EE0FFF1FEA52FE4F6081CD
:100E2000621B0895E42FF0E0EE0FFF1FEB52FE4F20
:100E30006081621B0895622F0895E42FF0E0EE0FA9
:100E4000FF1FEB52FE4F408134EE439F412D112492
:100E5000E82FF0E050E0445E5F4FDA01A21BB109D9
:100E60009D01B7FF03C031952195310993E0220F11
:100E7000331F9A95E1F7AF01421B530B9A0157FDBF
:100E800020E0582F259F212D1124822F0895E42F33
:100E9000F0E0EE0FFF1FEB52FE4F408134EE439F18
:100EA000412D1124E72FF0E050E0445E5F4FDA015E
:100EB000A21BB1099D01B7FF03C0319521953109EE
:100EC00093E0220F331F9A95E1F7AF01421B530BBA
:100ED0009A0157FD20E0279F212D1124722F08959C
:100EE0000C94B8050C94C305FC019B01009729F4F0
:100EF00080E077FF2BC080E80895AC0197FF04C025
:100F000044275527481B590BB901640F751F37FD3E
:100F100010C0241B350BC901A5E0880F991FAA95A5
:100F2000E1F70E942D2B80E2861BF7FF0FC0819511
:100F30000895CB0165E0880F991F6A95E1F7BA0122
:100F4000621B730B0E942D2B80E6EECF0895EF926B
:100F50000F93CF93DF93D72FC82FC9010E19BA0172
:100F60000E947407602F681B7D2F8C2FDF91CF911B
:100F70000F91EF9008950F93CF93DF93D72FC82F42
:100F8000C901BA010E947407682F600F7D2F8C2F52
:100F9000DF91CF910F910895EF920F931F93CF930D
:100FA000DF93D62FC72F182FC9010E19010FBA01D1
:100FB0000E947407081B202F219F212D1124822FAE
:100FC0006D2F7C2FDF91CF911F910F91EF9008959E
:100FD000EF920F931F93CF93DF93D62F172FC82F26
:100FE000C9010E19070FBA010E947407702F781BF0
:100FF000719F712D11246D2F8C2FDF91CF911F9137
:101000000F91EF9008950F931F93CF93DF93D62FF7
:10101000C72F182FC901212F201B022FBA010E94B0
:101020007407982F990F990F891B800F282F219FE4
:10103000212D1124822F6D2F7C2FDF91CF911F91B5
:101040000F9108950F931F93CF93DF93D62F172FF0
:10105000C82FC901272F201B022FBA010E94740735
:10106000982F990F990F782F791B700F719F712D01
:1010700011246D2F8C2FDF91CF911F910F91089527
:10108000E82F86FDE0952E2F2F7086FD2F5FE695C9
:10109000E695E695E670F0E0EC59FE4F9181929F5F
:1010A000902D212D112492959F702295207F922BB7
:1010B0002081920F87FD919580E8890F08950F9305
:1010C0001F93CF93DF938B01D82FC42F822F0E94C1
:1010D0004008EC2FF0E0EE0FFF1FEB52FE4F908127
:1010E0009058890F87FD8195880F682F2CE0629FAB
:1010F000612D1124600F712F8D2FDF91CF911F91E2
:101100000F910895409110015091110125E038E0B0
:10111000429FC001439F900D529F900D1124875E06
:10112000994C9093110180931001890F0895AC019F
:101130008230910508F408959FEF413E8EE15807F3
:1011400040F49A0195E0369527959A95E1F798E055
:10115000920F61E0E62FE90FFF27FF1F9F013595F2
:101160002795822F229FF001239FF00DF00D11246F
:101170004E175F0738F49FEF920F961758F78FEFCF
:10118000860F08952F3FE9F361E0620FF6CF0F93CA
:10119000CF93DF93D72FC82F47FD419588E390E089
:1011A000841B910947FD9395889FB001899F700D1D
:1011B000700D1124229FC001239F900D900D1124CA
:1011C000860F971F0E949708982F990F890F682FF5
:1011D000600F7D2F8C2FDF91CF910F91089530E01C
:1011E00020E0869F212D969F200D311D1124C901DD
:1011F000089520910E0630E1230F08F42FEF60E1EF
:10120000822F90E00E94EF08BC0188EB9BE00E94D7
:10121000192B90E080E00895AF92BF92CF92DF92B9
:10122000FF920F931F93CF93DF93362F472FE82F13
:10123000F0E0E75CFD4F71110FC0E4918E2F2E2F6F
:101240006E2F722FDF91CF911F910F91FF90DF9042
:10125000CF90BF90AF900895C72FD0E02491F22E89
:10126000022F10E056E0659FC0011124EFEFF0E07F
:10127000BF010E94192B832F90E0880F991F35E53D
:10128000369FD001379FB00D11248A1B9B0B982FDE
:10129000990F980F6F01CC1ADD0AC09ED001C19E34
:1012A000B00DD09EB00D11248B2F499FA0011124A9
:1012B000452F55276F01C41AD50AC09EA001C19EB3
:1012C000500DD09E500D11245F01A91AB108AC9E9B
:1012D0006001AD9ED00CBC9ED00C1124CD2CDD2421
:1012E000EC19FD09E09FE001E19FD00DF09FD00DCA
:1012F0001124ED2F62307105A1F050F461157105D4
:1013000009F49ECF6130710581F0EB2F852F98CFC6
:101310006430710569F080F06630710509F490CF92
:10132000F4CFE22F2B2F8D2F8BCFE22F252F88CFBD
:10133000EB2F822F2D2F84CF2B2F8F2DE52F80CFBA
:10134000DF92EF92FF920F931F93CF93DF937C0175
:10135000C091150181E1C89FC02D112411E11C0F1E
:10136000012F123508F001E560910E06669566952D
:1013700021E0620F08F46FEF80910206909103065E
:101380000E94EF08D82ED0E0C01760F081E0113540
:1013900008F080E0DF91CF911F910F91FF90EF90C7
:1013A000DF900895FE01E958FD4F8081909116016C
:1013B000892391F060910B0670910C0680910D06C7
:1013C0002D2D4C2FF70109950E940C09462F282F2F
:1013D000672FCE010E9472072196D6CF9F92AF92BF
:1013E000BF92CF92DF92EF92FF920F931F93CF9312
:1013F000DF936C01C091150181E1C89FC02D1124BC
:1014000011E11C0FB12E123510F031E5B32E6091B1
:101410000E066695669580910206909103060E94DD
:10142000EF08F82E80E48F0D0E94400890E8A92E66
:10143000A80E8F2D0E94400820E8922E980ED0E032
:10144000CB1580F081E0113508F080E0DF91CF917D
:101450001F910F91FF90EF90DF90CF90BF90AF90D2
:101460009F900895FE01E958FD4F808190911601EB
:101470008923A1F060910B0670910C0680910D06F6
:10148000EF2C0C2F292D4A2DF60109950E940C09ED
:10149000462F282F672FCE010E9472072196D0CFAA
:1014A0007F928F929F92AF92BF92CF92DF92EF92F4
:1014B000FF920F931F93CF93DF935C01C0911501AF
:1014C00081E1C89FC02D112411E11C0FF12E1235AE
:1014D00010F031E5F32E60910E06669580910206BC
:1014E000909103060E94EF08782ED0E0CF1590F07F
:1014F00081E0113508F080E0DF91CF911F910F91CD
:10150000FF90EF90DF90CF90BF90AF909F908F9023
:101510007F900895FE01E958FD4F8081909116015A
:101520008923C9F1CE01880F991F85589E4FFC0170
:10153000E65AFF4F2081422F4057550B6A01855ACA
:101540009F4FFC018081282F2052330B4901449F7B
:101550009001459F300D300D1124889CC001899C5D
:10156000900D900D1124820F931F0E949708082F51
:1015700060910B0670910C0680910D06E72C94018A
:10158000A601F50109950E940C09462F282F672F07
:10159000CE010E9472072196A9CFCF92DF92EF92DF
:1015A000FF920F931F93CF93DF937C01C09115019E
:1015B00081E1C89FC02D112411E11C0FD12E1235DD
:1015C00010F031E5D32E60910E06669580910206EB
:1015D000909103060E94EF08C82ED0E0CD1568F068
:1015E00081E0113508F080E0DF91CF911F910F91DC
:1015F000FF90EF90DF90CF900895FE01E958FD4FE6
:10160000808190911601892311F1CE01880F991FD5
:1016100085589E4FFC01E55AFF4F20812052330B25
:10162000865A9F4FFC0140814057550B60910B0635
:1016300070910C0680910D060C2DF70109950E9402
:101640000C09462F282F672FCE010E947207219682
:10165000C5CF0E9455059C01909188038091890314
:10166000982B21F0309385032093840390918A0373
:1016700080918B03982B21F0309383032093820376
:10168000E091DF05F091E005309749F082E080932A
:1016900086030480F581E02D86E893E0099408959F
:1016A00040918803803F59F48091890387FF0DC0E2
:1016B0001092890341110BC01092800308C0813F32
:1016C00081F48091890318169CF3442381F0809162
:1016D0008A0390918B03892B09F05AC010927F03E3
:1016E0000895823F49F447FFF0CF1092880380911C
:1016F00089038111ECCFE0CF833F19F41416ACF3CA
:10170000E4CF90918A03893F29F41916F4F61092D8
:101710008A03DBCF8A3F19F497FFD7CFF8CF909198
:101720008B038B3F29F497FFD0CF10928B03CDCF43
:101730008C3F19F41916CCF3C8CF9CE0980F953064
:1017400090F4845F990B21E030E0B90102C0660F8C
:10175000771F8A95E2F7CB018095909187038923C3
:1017600080938703B2CF8D3F31F4809181038E7FC8
:1017700080938103AACF8E3F21F4809181038D7FD6
:10178000F7CF8F3F09F0A1CF809181038B7FF0CFFE
:1017900008958091810380FD16C081FD16C082FDF1
:1017A00016C080917F038823A1F0883280F428E05E
:1017B000829FC001112468E270E00E942D2B862FC9
:1017C000672B39F0089582E0089584E0089588E059
:1017D000089581E008958091810380FD14C081FD0A
:1017E00014C082FD16C080918003882381F08E3161
:1017F00080F420E5829FC00111246EE170E00E9418
:101800002D2B862F089584E1089588E2089588E0BD
:10181000089580E50895803F31F40E94EB0B819597
:10182000809389030895813F19F40E94EB0BF8CF50
:10183000823F31F40E94EB0B8195809388030895D9
:10184000833F19F40E94EB0BF8CF893F29F40E94E3
:10185000C90B80938A0308958A3F21F40E94C90B23
:101860008195F7CF8B3F31F40E94C90B819580930E
:101870008B0308958C3F19F40E94C90BF8CF9CE0AC
:10188000980F953070F4845F990B21E030E001C02F
:10189000220F8A95EAF780918703822B8093870332
:1018A00008958D3F31F4809181038160809381039D
:1018B00008958E3F21F4809181038260F7CF8F3F9E
:1018C000B9F7809181038460F1CF80E00895F894A6
:1018D000E82FE295EF70F0E031A1282F2F7081E022
:1018E00090E001C0880F2A95EAF7982F90959323EE
:1018F00091A392A1892B82A3789408959091530388
:1019000092FF06C0282F28712830F9F4877F846061
:1019100093FF06C0282F28712831F1F4877E846157
:101920002091540320FF06C0382F38713830D9F485
:10193000877F816021FF06C0282F28712831D1F4CC
:10194000877E816194FD877E0895282F247124303D
:10195000F9F68B7F8860DCCF282F2471243101F7C2
:101960008B7E8861DDCF382F3171313019F78E7F52
:101970008860E0CF282F2171213121F78E7E886188
:10198000E1CFCF93DF93EC0182389105A9F1D8F52F
:101990008133910509F496C048F58932910509F41F
:1019A0008AC08A9709F495C0C11521E5D20708F0CD
:1019B000BCC0C11530E5D30708F014C1C83ED1053D
:1019C00008F09CC0C03ED10560F5C83AD10508F0CA
:1019D00087C0C53AD10508F0FDC0C130D10509F175
:1019E0002097F9F0C430D105E0F440C0853391056B
:1019F00009F45AC0C997C1F680915303837089F0E6
:101A0000C0EED0E00EC0833E910599F170F4803EA7
:101A1000910501F1823E910539F68091530382FDD3
:101A200021C0CE01DF91CF910895863E910561F1ED
:101A3000873E910571F1843E910509F0B5CF809103
:101A4000540381FFEECF80915303C7EED0E084FDB5
:101A50000DC0E7CF8091530380FD12C190915403D4
:101A600090FFDFCFC3EED0E084FFDBCFD0E0C0E05B
:101A7000D8CF8091530382FD06C19091540390FD0D
:101A8000BFCF84FFCECFF2CF8091530383FDDDCF54
:101A9000C8CF8091530383FDF9C09091540391FF07
:101AA000F0CFC4EED0E0BDCF8091530385FFB9CF16
:101AB000C9E2D0E0B6CF8091530385FFB2CFC5E332
:101AC000D0E0AFCF8091530386FFABCFCAE2D0E026
:101AD000A8CF8091530386FFA4CFC1E3D0E0A1CF6C
:101AE000CF3BD10518F6C85AD0E0CC0FDD1FC15E40
:101AF000DE4F0990D881C02DD46493CFC11540E248
:101B0000D40758F4C11581E0D80708F08ACFC03F48
:101B1000D10508F4ABCFD06584CFC11590E4D907C7
:101B200008F4A4CFDF70D06A7CCFC11525E5D207B9
:101B300000F5C11534E5D30708F08AC0C11543E5A7
:101B4000D40708F071C0C11582E5D80708F467C052
:101B5000CE018370992721E030E002C0220F331FAD
:101B60008A95E2F7C695C69580E2C89FE0011124E8
:101B700052C0C11599E5D907A8F4C11528E5D207C7
:101B800008F06BC0C11536E5D30708F06FCF8C2F76
:101B90000E947E0CC82FD0E0DC2FCC27CC27DF7131
:101BA000D0623FCFC1154AE5D40708F45BC0CE012F
:101BB00090568115904208F059CF8D2F8F710E9459
:101BC0007E0C90E0982F882788279F719C012C2BF2
:101BD000E901E6CFC55AD0E0C45EDE4FC881D0E04F
:101BE000D0641FCFCE01E4E096958795EA95E1F7A2
:101BF00083702C2F26952695237040E2249F900118
:101C00001124382B8C2F8370C1E0D0E002C0CC0FA0
:101C1000DD1F8A95E2F7C22BD32BDC6802CFDC2FC5
:101C2000CC27C16FD06AFDCECE018370992721E009
:101C300030E002C0220F331F8A95E2F7C695C695A1
:101C400090E2C99FE0011124C22BD32BDA68E9CEC0
:101C5000DC2FCC27C46FD06AE4CEDC2FCC27C06F3A
:101C6000D06ADFCE8C2F8F700E947E0C34E0D69528
:101C7000C7953A95E1F7CF709C2FEC01D069D1CE92
:101C8000C9E3D0E0CECEC2EED0E0CBCEC6EED0E0FF
:101C9000C8CE80913A03811110923A03089580953D
:101CA00090913903982390933903089580912E03DE
:101CB0009091FD02981301C008958F5F8770FACF4D
:101CC00022E1929F800D1124982F9770869586951A
:101CD000869523E0829FF0011124ED52FD4F50E0E4
:101CE00040E080E0219130E0092E02C03695279532
:101CF0000A94E2F721703327042E01C0220F0A94C0
:101D0000EAF7822B4F5F5F4F4330510559F7089533
:101D100022E1929F800D1124982F977041E001C01D
:101D2000440F9A95EAF786958695869593E0899F64
:101D3000F0011124ED52FD4F90E080E070E05191F0
:101D4000DF0111979B01082E02C0369527950A9452
:101D5000E2F7217021952527242325272C9301962E
:101D60008330910561F708958093E8057093EA0543
:101D70006093E9058091F8058430F9F48093E900D7
:101D80008FEF9091E800815095FD06C095ED9A95F2
:101D9000F1F700008111F5CF8091E80085FF0DC0BB
:101DA00050E040E063E070E088EE95E00E940804B7
:101DB0008091E8008E778093E8000895BC0184E06C
:101DC0000C94B40EBC0183E00C94B40E9C0184E02E
:101DD0008093E9009FEF8091E800915085FD06C057
:101DE00085ED8A95F1F700009111F5CF8091E8001B
:101DF00085FF0CC050E040E066E070E0C9010E9441
:101E000008048091E8008E778093E8000895CF93CE
:101E1000DF93EC0181E08093E9008FEF9091E8007F
:101E2000815095FD06C095ED9A95F1F7000081115E
:101E3000F5CF8091E80085FF14C050E040E068E0F5
:101E400070E0CE010E9408048091E8008E778093B4
:101E5000E80088E0FE01AEEEB5E001900D928A95B3
:101E6000E1F7DF91CF91089581E08093E00080E277
:101E70008093D8001092C9008FE19EE40197F1F79A
:101E800000C0000087E090EBDC0180931106909386
:101E90001206A0931306B093140688E19CE00FB6D7
:101EA000F894A895809360000FBE90936000FFCFD8
:101EB000279A35B13F7725B120684FB7F8948AEE5D
:101EC00094E0FC015191CF0168E025B9000000C009
:101ED00057FF35B9550F000000C000C000C035B92C
:101EE00000C06A9591F7F5E08D3D9F0751F74FBF10
:101EF0008FE594E00197F1F700C000000895CF93BB
:101F0000DF93C7EFD2E060E0CE010E94E52B21967F
:101F1000C11584E0D807B9F7DF91CF9108956F928A
:101F20007F928F929F92AF92BF92CF92DF92EF9269
:101F3000FF920F931F93CF93DF9389E3C82E83E023
:101F4000D82EEE24EA94F12CE701C45BD1093601C6
:101F50001BC0F50185909490692DC8010E94E52B66
:101F6000682DC80101960E94E52B82E0A80EB11CE5
:101F70000E5F1F4FC017D10761F784E2680E711C16
:101F8000A496CE15DF0529F08E01045211095301E4
:101F9000E0CF7E0184EBE80EF11C84EBC80ED11C6F
:101FA0008FECE81683E0F80679F6DF91CF911F9168
:101FB0000F91FF90EF90DF90CF90BF90AF909F90E8
:101FC0008F907F906F900895CF93C82F6FEF8111FE
:101FD00062E283E290E00E94E52B6FEFC11164E0C2
:101FE00084E290E00E94E52B6FEFC11161E185E290
:101FF00090E0CF910C94E52B80E00E94E40F60E02C
:1020000086E290E00E94E52B0E948F0F0E947F0FD6
:1020100081E00C94E40F0F931F93CF93DF93C42FB1
:10202000D0E0CC0FDD1F24E2629FC00DD11D112432
:1020300034EB839FC00DD11D1124CE0187960E94E1
:10204000C72B082F10E0102F0027CE0188960E9482
:10205000C72B9801282BC901DF91CF911F910F91B8
:102060000895462F843038F4753028F4623118F41E
:10207000672F0C940B1090E080E00895CF92DF92D0
:10208000FF920F931F93CF93DF936C010091100683
:1020900080913B03082BC7E0D0E010E0FC2EC80184
:1020A0000C2E02C0959587950A94E2F780FD0CC02E
:1020B0002197A0F7F12C8F2DDF91CF911F910F91D8
:1020C000FF90DF90CF900895B6018C2F0E943110C1
:1020D0000E94C10C019761F3EECFCF93DF93EC0127
:1020E0000E943E10BE010E943110DF91CF910C94EE
:1020F000C10CFC01808191810E946D1092959F70AE
:10210000963091F058F4925F9F70923058F4803F6F
:1021100019F030F4883E30F481E008959A5FF4CFEE
:10212000843FD1F380E00895883EB0F3813FD1F73A
:10213000F3CF83E290E00E94C72B823289F484E2DD
:1021400090E00E94C72B843059F485E290E00E9411
:10215000C72B91E0813109F090E0892F81700895BB
:1021600080E0FCCFCF9384E090E00E94C72BC82F83
:1021700082E290E00E94C72B982F8C2FCF91089578
:102180001F93CF93DF93EC01FC01E958FD4F808151
:102190006823C9F00E949A2B182F0E949A2B8F77E0
:1021A000782F20E8720F08F47FEF612F80910D06E1
:1021B0000E940C09462F282F672FCE01DF91CF9167
:1021C0001F910C947207DF91CF911F910895DF92B8
:1021D000EF92FF920F931F93CF93DF938C01FC013B
:1021E000E958FD4F8081682381F1D0900C06D09191
:1021F0000D06C0910B06EC2EF12C0E949A2B282F75
:10220000C7018C549F4F68E671E00E942D2B8E19F8
:102210009F0997FD039695958795959587952370CA
:102220006C2F289F600D11247D2D8D2F0E940C098D
:10223000462F282F672FC801DF91CF911F910F9153
:10224000FF90EF90DF900C947207DF91CF911F9178
:102250000F91FF90EF90DF9008955F926F927F92C1
:102260008F929F92AF92BF92CF92DF92EF92FF92A6
:102270000F931F93CF93DF93182F80911301811336
:1022800023C090910A0693702091120130E081E002
:102290009217130609F480E08170809317018091F2
:1022A0000F0690911601981739F08093160140E0BF
:1022B00060E080E00E9470071F3160F4E12FF0E0E1
:1022C000E259F34D0C94412B81E0E6CF8091170148
:1022D000811124C0C0E0809115018F5F80931501AA
:1022E000C1110CC082E08093180180911701811107
:1022F00005C0111103C083E080931801DF91CF91D5
:102300001F910F91FF90EF90DF90CF90BF90AF9013
:102310009F908F907F906F905F90089540E060E075
:1023200080E00E947007D6CFC091150181E1C89F5F
:10233000C02D112401E10C0FF02E023510F061E5E3
:10234000F62E60910B0670910C0680910D060E948E
:102350000C09E62ED72EC82ED0E0CF1528F0C1E00C
:10236000013508F4B8CFB6CFFE01E958FD4F8081A2
:1023700090911601892331F02C2D4E2D6D2DCE011B
:102380000E9472072196E9CFC091150181E1C89F93
:10239000C02D112401E10C0FF02E023510F051E593
:1023A000F52ED0900C06E0900D06D0910B066D2F07
:1023B0007D2D8E2D0E940C09C62EB72EA82E609161
:1023C0000E066D0F7D2D8E2D0E940C09E62ED72E48
:1023D000982ED0E0CF1518F6FE01E958FD4F9081F8
:1023E00080911601892359F0292D4E2D6D2D90FDD8
:1023F00003C02A2D4C2D6B2DCE010E947207219611
:10240000E9CFC091150181E1C89FC02D112401E1E0
:102410000C0FE02E023510F041E5E42ED0900C06B2
:10242000C0900D0620910E0630E4F32E3F2D329F12
:10243000312D1124F32ED0E0CE1508F090CFFE01FF
:10244000E958FD4F8081909116018923B9F0FE0172
:10245000EE0FFF1FEA52FE4F808182958F706091D0
:102460000B068F9D600D11247D2D8C2D0E940C0973
:10247000462F282F672FCE010E9472072196DCCFAE
:10248000C091150181E1C89FC02D112401E10C0FFD
:10249000E02E023510F081E5E82ED0900C06C090B9
:1024A0000D0620910E06D0E4FD2E3F2D329F312DDA
:1024B0001124F32ED0E0CE1508F051CFFE01E958DB
:1024C000FD4F8081909116018923D9F0FE01EE0F16
:1024D000FF1FEB52FE4F6081F69EB0011124B5E064
:1024E00075956795BA95E1F780910B06680F7D2D7C
:1024F0008C2D0E940C09462F282F672FCE010E9499
:1025000072072196D8CFC091150181E1C89FC02DD7
:10251000112401E10C0FF02E023510F071E5F72EB9
:10252000E0900B06D0910C06D0900D0660910E063F
:1025300066956695669580910206909103060E94C5
:10254000EF080E944008805887FD8195880F282F4A
:102550003D2D239F212D1124822F6E2D7D2F0E9432
:102560000C09E62ED72EC82ED0E0CF1508F0F7CEF6
:10257000FE01E958FD4F808190911601892331F0C9
:102580002C2D4E2D6D2DCE010E9472072196EDCF80
:1025900087E497E00E94A00907C08DE197E0FACF99
:1025A00082E298E00E94CD0AC82F95CE83E098E0A1
:1025B000F9CF88EE97E00E94500AF6CF8CEC97E0B6
:1025C000FACF8BE197E0E6CF82E197E0E3CF89E0B5
:1025D00097E0E0CF80EF96E0DDCF82EE96E0EBCFA4
:1025E00087EC98E0DFCF8BEB97E0DCCF87EA97E0D2
:1025F000E2CF85EB96E00E94EE09D6CF87E896E021
:10260000FACF80E596E0F7CFC0911701C1111EC047
:1026100060910E0620E1620F08F46FEF80910206D0
:10262000909103060E94EF086AE070E00E94192B67
:10263000892B09F04FCE0E949A2B61E570E00E9431
:102640002D2B609116010E94E71045CEC091150117
:1026500081E1C89FC02D112401E10C0F802F0235AC
:1026600008F081E5D0E0E82EF12CCE15DF050CF066
:1026700076CE60911601CE010E94E7102196F5CF2B
:10268000C0911701C1111EC060910E0620E1620FBA
:1026900008F46FEF80910206909103060E94EF0804
:1026A00065E070E00E94192B892B09F013CE0E947F
:1026B0009A2B61E570E00E942D2B609116010E941B
:1026C000C01009CEC091150181E1C89FC02D112411
:1026D00001E10C0F802F023508F081E5D0E0E82EF3
:1026E000F12CCE15DF050CF03ACE60911601CE012B
:1026F0000E94C0102196F5CFC091150181E1C89FBD
:10270000C02D112401E10C0FF02E023510F061E50F
:10271000F62ED0900C06E0900D06D0910B0660913D
:102720000E06669566956695809102069091030661
:102730000E94EF080E944008805887FD8195880F0D
:10274000682F2CE0629F612D11246D0F7D2D8E2D41
:102750000E940C09E62ED72EC82ED0E0CF1508F027
:10276000FECDFE01E958FD4F80819091160189232D
:1027700031F02C2D4E2D6D2DCE010E947207219629
:10278000EDCF8FE598E006CF8FE396E003CF409141
:102790008C0350918D0360918E0370918F03809113
:1027A000020690910306A0910406B09105068417D5
:1027B0009507A607B70708F48DCD0E948208082F59
:1027C0000E94820891E5891BF0F7890FC82FD0E09D
:1027D000FE01E958FD4F809116019081892309F48B
:1027E00079C020E040E060E001FD13C00E94820853
:1027F000082F0E948208782F76952FE7720F08F431
:102800007FEF602F80910D060E940C09462F282F24
:10281000672FCE010E94720720910E0630E1230F30
:1028200008F42FEF60E1822F90E00E94EF08BC01D6
:1028300084EF91E00E94192B80910206909103068B
:10284000A0910406B0910506860F971FA11DB11D2A
:1028500080938C0390938D03A0938E03B0938F038A
:1028600039CD409183045091840460918504709126
:1028700086048091020690910306A0910406B0910F
:10288000050684179507A607B70708F423CD80919E
:102890001701811121C0C091150181E1C89FC02D90
:1028A000112401E10C0FD02E023510F051E5D52E88
:1028B000EC2EF12CE3E0CE9FE0011124C057DC4F59
:1028C000ED1408F442C0E0E9F3E080E894E001355B
:1028D00008F054C0C1E0FFCC40E060E080E00E941E
:1028E000700740E9E42E43E0F42ED0E0C0E00FE7AB
:1028F0000E94820881FF0CC0F701108211821282AF
:102900002196F3E0EF0EF11CC135D10589F7C3CF55
:102910000E948208B82E0E9482088695782F700F38
:1029200008F47FEFCE01880F991F8C0F9D1F9C012B
:1029300020573C4F69016B2D80910D060E940C09B8
:10294000F601608371838283DBCFF701E958FD4F85
:10295000808190911601892331F02A814881698113
:10296000C7010E94720723962FEFE21AF20AA8CF3E
:102970002381348145812193319341938E179F07A1
:10298000B9F70E94820881FF1FC010928004109244
:102990008104109282040E94F908C0900206D0902F
:1029A0000306E0900406F0900506DC01CB018C0DD7
:1029B0009D1DAE1DBF1D8093830490938404A0933E
:1029C0008504B093860486CC0E948208C82F0E949A
:1029D00082088695782F2FE7720F08F47FEF6C2F0F
:1029E00080910D060E940C0960938004709381040D
:1029F00080938204D0CF4091E1045091E204609131
:102A0000E3047091E4048091020690910306A09182
:102A10000406B091050684179507A607B70708F4C2
:102A200059CC80911701882329F040E060E080E0D4
:102A30000E94700760910B0670910C0680910D0644
:102A40000E940C09062F772E682EC7E8D4E09BE77A
:102A5000A92E91E0B92E21E1E22EF12C670181E14E
:102A6000C81AD108512CC60189579B4F4C01F60159
:102A7000E558FE4F808190E0F4012081222309F483
:102A800076C0262D402F672D0E947207F4018181A8
:102A900080835394FFEFCF1ADF0A28E05212E3CF6E
:102AA000670181E1582EC60189579B4F4C01F60101
:102AB000E558FE4F808190E0F4012081222309F443
:102AC0005AC0262D402F672D0E947207F4013197BE
:102AD0008081F40180835A94F1E0CF1AD10829E073
:102AE0005212E1CFF501818590E02985222309F476
:102AF00046C0262D402F672D0E947207F501808564
:102B000090E02885222309F43EC0262D402F672D12
:102B10000E9472070E948208837091E009F090E0A1
:102B2000988799876296F2E1AF0EB11C22E1E20E1E
:102B3000F11C3BE6E316F10409F090CF0E94F9087E
:102B4000C0900206D0900306E0900406F0900506BF
:102B5000DC01CB018C0D9D1DAE1DBF1D8093E104DA
:102B60009093E204A093E304B093E404B3CB20E099
:102B700040E060E089CF20E040E060E0A5CF20E0C9
:102B800040E060E0B9CF20E040E060E0C1CF8FB727
:102B9000F8944091E4055091E5056091E605709147
:102BA000E7058FBF4093E5045093E6046093E70484
:102BB0007093E8048091E904811113C090910A0692
:102BC000892F837019F0892F869586959091180129
:102BD0009130B9F0992339F09230A9F09330F1F0A7
:102BE000089580E0F3CF10921501409302065093B0
:102BF0000306609304067093050681E08093180134
:102C000008950C942D118093130180910A0683700E
:102C1000809312010E94580F83E0F0CF8091090643
:102C2000882351F046E050E06CE170E08AE096E0E5
:102C30000E94D52B1092090640910206509103067E
:102C400060910406709105062FB7F8948091E40511
:102C50009091E505A091E605B091E7052FBF841B93
:102C6000950BA60BB70B4097A105B10510F010927C
:102C700018010895EAE0F6E085E380838091190168
:102C800090911A01A0911B0181839283A3838FE706
:102C900084838FEF858346E050E06CE170E0CF01E4
:102CA0000E94D52B1092090608954F925F926F9261
:102CB0007F928F929F92AF92BF92CF92DF92EF92CC
:102CC000FF920F931F93CF93DF93CDB7DEB7649737
:102CD0000FB6F894DEBF0FBECDBF8E010F5F1F4F42
:102CE00084E1F80111928A95E9F79DE4E92E91E0DB
:102CF000F92E6801AA24A394B12C34E6832E31E086
:102D0000932EF70181917F018F3F09F44FC0F89412
:102D1000E82FE295EF70F0E021A18F70A50102C0CD
:102D2000440F551F8A95E2F7CA01922F982B91A361
:102D300092A18095892382A3789400C0E2E5F1E016
:102D400041E050E060E070E0412C512C32012191D3
:102D50002F3F09F46EC0A22FA295AF70B0E09096FD
:102D60008C9190E02F7002C0959587952A95E2F797
:102D700080FD5FC0DB01CA01482A592A6A2A7B2AE2
:102D8000440F551F661F771F8E169F0601F7F70128
:102D9000319780818F3F11F00E94670C50EA5A955D
:102DA000F1F7F6014082518262827382F4E0CF0E25
:102DB000D11C42E5E41641E0F40609F0A2CF44E15B
:102DC00050E0B8018FE393E00E94AA2BFF24F39414
:102DD000009709F4F12C892B81F184E1F801AFE32C
:102DE000B3E001900D928A95E1F781E080933E0374
:102DF0000E94550590933D0380933C0380913C03D2
:102E000090913D030E9446050597D8F0EFE3F3E06B
:102E1000ABE6B3E041915191619171914D935D9316
:102E20006D937D9353E0E335F507A1F710923E03D0
:102E300008C080E090E0DC019FCF80913E038111CB
:102E4000DDCF8F2D64960FB6F894DEBF0FBECDBFD9
:102E5000DF91CF911F910F91FF90EF90DF90CF9076
:102E6000BF90AF909F908F907F906F905F904F90AA
:102E700008958091390390913803892B8093CA0279
:102E800090913A03992391F0892B8093CA0220E014
:102E90008CEC92E0FC013191CF0131112F5FF2E017
:102EA000823D9F07B9F721110E94490E48E050E08A
:102EB00060E373E08AEC92E00E94AA2B892BA9F0D0
:102EC00088E0EAECF2E0A0E3B3E001900D928A958D
:102ED000E1F7E091DF05F091E005309731F00280F5
:102EE000F381E02D8AEC92E00994089590E080E06F
:102EF0000E94910590E080E00E947B0510923803CB
:102F00000E94391786E0E6E8F3E0DF011D928A951A
:102F1000E9F71092800310927F03109281030C94C2
:102F2000290B809310060C94761780911006982F29
:102F30009670963019F488600C949117877FFCCFB7
:102F400021E030E001C0220F8A95EAF720958091B8
:102F5000100682230C94911790912F03809589235A
:102F600080932F03282F277091F4282F082E000C10
:102F7000330B9217130659F09091540392FD07C03A
:102F80008595859585950E94A01710922F03089529
:102F9000CF93C0915403C2FB992790F9981799F0E9
:102FA00080FBC2F9C09354036091530384E090E026
:102FB0000E94E52B6C2F82E290E00E94E52B82E0DC
:102FC000CF910C94AC17CF91089521E030E001C06F
:102FD000220F8A95EAF780911006822B0C949117A4
:102FE00080933B030C94761710923903ECECF2E0DB
:102FF00086E0DF011D928A95E9F70C9476171F93FE
:10300000CF93DF93CDB7DEB7AA970FB6F894DEBFA4
:103010000FBECDBF8AEF95E02091F100DC012D932A
:10302000CD01B6E082309B07B9F78091FB05833074
:1030300009F472C0B8F4813009F449C0823009F44F
:10304000B3C08091E80083FF8BC28091FA05909114
:10305000FB059A3008F084C2E92FF0E0E357F34D06
:103060000C94412B8A3009F48EC08B3009F471C066
:10307000893039F78091FA05813219F78091FE0580
:103080009091FF05009711F00297D9F68091E80022
:10309000877F8093E8008091E80082FF38C090919C
:1030A000F3008091F200029731F48091F1008130B9
:1030B00011F0863021F48091F1008093ED0580912C
:1030C000E8008B778093E8000E943204BACF8091A9
:1030D000FA05813A09F0B5CF8091E800877F8093A7
:1030E000E8008091FE059091FF05892B61F468E06E
:1030F0008EEE95E070E00E94E4048091E8008B770A
:103100008093E8009ECF60E090E080E0F3CF809174
:10311000F8058111C0CF95CF8091FA05813A09F069
:1031200090CF8091FE059091FF05892B09F089CF02
:103130008091E800877F8093E8008091E80080FF1D
:10314000FCCF809114018093F1008091E8008E778C
:10315000B9CF8091FA05813209F073CF8091FE05D5
:103160009091FF05892B09F06CCF8091E800877F53
:103170008093E8000E9432048091FC058093140142
:103180000E94F4175ECF8091FA05813209F059CF81
:103190008091E800877F8093E8000E94320480914C
:1031A000FD058093EC054DCF8091FA05813A09F039
:1031B00048CF8091E800877F8093E8008091E80005
:1031C00080FFFCCF8091EC05BECF803899F082382B
:1031D00009F0C6C18091FE058F70873008F0C0C12C
:1031E0008093E9008091EB0085FB882780F910929D
:1031F000E90006C08091F6059091F7059111826073
:103200009091E800977F9093E8008093F1001092EE
:10321000F1008091E8008E779FC1882309F48DC169
:10322000823009F09DC18091FC05811190C180918F
:10323000FE058F702FEF280F263008F091C1809384
:10324000E9002091EB0020FF82C1933031F480919E
:10325000EB0080628093EB007AC19091EB0090616B
:103260009093EB0021E030E001C0220F8A95EAF74D
:103270002093EA001092EA008091EB008860EACF88
:1032800081116EC11091FC051F778091E300807859
:10329000812B8093E3008091E800877F8093E80092
:1032A0000E9432048091E80080FFFCCF8091E3000F
:1032B00080688093E30082E0111183E08093F80539
:1032C0004FC18058823008F04BC12091FC053091ED
:1032D000FD052C3DE3E03E07A1F583E08A838AE209
:1032E00089834FB7F894DE01139620E03EE051E267
:1032F000E32FF0E050935700E49120FF03C0E295E4
:10330000EF703F5FEF708E2F90E0EA30C0F0C7960D
:103310008D939D932F5F243159F74FBF8091E80023
:10332000877F8093E8006AE270E0CE0101960E94F8
:10333000E4048091E8008B778093E80011C1C09687
:10334000E7CF8091FE059091FF05432F552743302D
:10335000510509F44AC078F54130510509F47AC0A5
:103360008BE590E0E9E0F6E04230510509F0F8C065
:103370002091E800277F2093E800209100063091FB
:1033800001068217930708F49C0140E021153105DE
:1033900009F065C0411163C08091E80082FDC9CF8A
:1033A0008091F805882329F2853019F28091E80090
:1033B00083FFF2CFBECF4132510509F43CC0423207
:1033C000510509F0CDC08330910508F0C9C0FC015A
:1033D000EE0FFF1FE159FE4F0190F081E02D84595F
:1033E0009E4FDC018C9190E01AC0332721303105CB
:1033F000D1F02115310561F02230310509F0B0C05E
:10340000E6E7F6E0E4918E2F90E0E6E7F6E007C00D
:10341000E0EAF6E0E4918E2F90E0E0EAF6E0009733
:1034200009F49EC0A5CFECE8F6E0E4918E2F90E081
:10343000ECE8F6E0F4CF8330910508F091C0880FF6
:10344000991FFC01EB58FE4F0190F081E02D89E0BF
:1034500090E08ECF82E190E0E4E6F6E089CF8091C3
:10346000F805882309F465CF853009F462CF80918F
:10347000E80083FD5ECF8091E80082FD8DCF8091D2
:10348000E80080FF83CF9091F3008091F200211536
:10349000310519F08830910550F041E0089709F0A6
:1034A00040E08091E8008E778093E8006FCF4491F0
:1034B0004093F1003196215031090196E8CF8038D0
:1034C00009F04EC08091E800877F8093E8008091EA
:1034D000F9058093F1009DCE811142C01091FC0549
:1034E0001230F0F58091E800877F8093E800109318
:1034F000F9050E943204112311F084E005C0809187
:10350000E30087FDFACF81E08093F80542E061ECAB
:1035100081E00E94510442E261EC84E00E94510487
:1035200042E261EC82E00E94510442E260EC83E0FE
:103530000E9451048091F80513C08091FC058130F0
:1035400079F481E0933009F080E08093F7051092E0
:10355000E9008091E800877F8093E8000E943204B0
:103560008091E80083FF0AC08091E800877F809304
:10357000E8008091EB0080628093EB00AA960FB682
:10358000F894DEBF0FBECDBFDF91CF911F9108959C
:10359000882321F00E944F0E0C9439170895882338
:1035A00039F090913903982B909339030C94391783
:1035B00008958823B1F19CEF980F913A70F4ECECE8
:1035C000F2E09191891303C0DF0111971C9292E000
:1035D000E23DF907B1F70C94391790E2980F983053
:1035E00050F4877091E001C0990F8A95EAF7892F0E
:1035F0000E944F0EF0CF9BE5980F933020F490E09F
:1036000080E00C94910598E5980F973120F490E0B4
:1036100080E00C947B05803F20F00E94500B0C94BE
:10362000290B0895CF93C82F882309F456C08CEF37
:103630008C0F813AF8F4ECECF2E082ED92E0DF01DD
:103640002D91C21759F08A179B07D1F76C2F8AEC7E
:1036500092E00E946105CF910C9439172191C21319
:1036600003C0DF0111971C928E179F07B9F70E94C4
:103670003917ECCF80E28C0F883068F4C77021E0F6
:1036800030E001C0220FCA95EAF780913903822BFE
:1036900080933903E0CFEBE5EC0FE33040F4F0E04A
:1036A000E45EFE4F808190E0CF910C949105E8E5B7
:1036B000EC0FE73150F4F0E0EE0FFF1FE15EFE4F3C
:1036C00080819181CF910C947B05C03F30F08C2F8D
:1036D0000E940B0CCF910C94290BCF9108951F934E
:1036E000CF93DF93182FD0E0C0E0893311F4C0E509
:1036F000D0E0812F0E94121B209731F4812FDF919F
:10370000CF911F910C94D91A8FE99FE00197F1F79F
:1037100000C000002197F0CF0F931F93CF93DF934A
:10372000C62FD42F022FFC0182818823A1F0609341
:1037300008060E9455059093070680930606C770F9
:1037400081E001C0880FCA95EAF7DF91CF911F9100
:103750000F910C94CF1A80910806681335C08091A0
:103760000606909107060E944605883C910560F583
:1037700010E21D0FCD17B9F080E28C0F883040F4B5
:10378000C77081E001C0880FCA95EAF70E94C81A85
:10379000183048F481E09D2F977001C0880F9A95EA
:1037A000EAF70E94CF1A802F0E946F1B183098F4FE
:1037B000D77081E001C0880FDA95EAF7DF91CF91E9
:1037C0001F910F910C94C81AC77081E001C0880F37
:1037D000CA95EAF7F3CFDF91CF911F910F9108952A
:1037E00090E080E00E94CF2B893E9E4F11F40C9414
:1037F000991080E0089569EE7EEF90E080E00E94ED
:10380000032C60E082E090E00E94E52B60E083E022
:1038100090E00E94E52B10923B0360E084E090E092
:103820000E94E52B60E082E290E00E94E52B60E0E0
:1038300085E090E00E94E52B60E086E090E00E9449
:10384000E52B6FEF87E090E00E94E52B40E050E031
:10385000BA0188E090E00E94F72B60E08DE090E0F4
:103860000E94E52B40E050E0BA0188E190E00E9420
:10387000F72B60E087E190E00E94E52B40E050E00C
:10388000BA018CE190E00E94F72B70E060E080E2EA
:1038900090E00E94032C40E050E0BA0188E190E003
:1038A0000E94F72B80E00E94E40F0E94FC0F40E092
:1038B00050E0BA018FE090E00E94F72B40E050E02A
:1038C000BA0183E190E00C94F72B3F924F925F9204
:1038D0006F927F928F929F92AF92BF92CF92DF9220
:1038E000EF92FF920F931F93CF93DF9300D000D0FE
:1038F0000F92CDB7DEB78C01FC0183819481892BB7
:1039000031F08081918189238F3F09F06FC50F903D
:103910000F900F900F900F90DF91CF911F910F910B
:10392000FF90EF90DF90CF90BF90AF909F908F90DF
:103930007F906F905F904F903F9008950E943E104F
:10394000F82E682F89819A810E94880E69817A8178
:103950008F2D0E9431107C01F8018281882309F4A7
:1039600038C5970122513F452031310508F004C583
:103970008FEF93E00E94C72BFEEEEF0E57EF852EE0
:1039800052E0952E8823A1F180912F03877009F4CE
:10399000BECFF8018281882309F4B9CF8091540306
:1039A00082FDB5CF82E00F900F900F900F900F9097
:1039B000DF91CF911F910F91FF90EF90DF90CF900B
:1039C000BF90AF909F908F907F906F905F904F903F
:1039D0003F900C94AC17811424E09206A9F2C40124
:1039E0000E94C72B811101C0EA943FEF831A930A0A
:1039F000E110F1CF1C821B82442443944AE0342E10
:103A000074018FEFE81AF80AC4010E94C72B89835A
:103A10001A82882309F4B8CF9FEF980F933000F5EE
:103A20008A83498292E0890E911CC7010E94C72BAC
:103A30008B83882309F4A8CFFE0131967F01F7011B
:103A400020812223E9F2213009F049C0918182814D
:103A5000913041F4F2E0EF0EF11C0E946F1B09C09F
:103A60004701EACF923049F422E0E20EF11C0E94B5
:103A7000121B3FEFE31AF30AE2CF933031F432E046
:103A8000E30EF11C0E94D91AF4CF943021F08FEF8D
:103A9000E81AF80AEECF92E0E90EF11C30E020E0DF
:103AA000B7016F5F7F4FF70141818053990B8A30D7
:103AB000910550F021503109E0F28FE99FE0019724
:103AC000F1F700C00000F6CF329EF001339EF00DFA
:103AD00011249C012E0F3F1F842F7B01E1CFE22F89
:103AE000F0E0E754FE4F5490822F86958695869598
:103AF00090E0FC01E755FE4F64902770712C022E78
:103B000002C0759467940A94E2F7E1E06E2277248C
:103B1000FC01E756FE4FA490B12C022E02C0B594D2
:103B2000A7940A94E2F7F1E0AF22BB24FC01E75727
:103B3000FE4FC490D12C02C0D594C7942A95E2F7C9
:103B400021E0C222DD246114710419F081EE0E948B
:103B5000121BA114B10419F086EE0E94121B852DD0
:103B60000E946F1BAB2819F086EE0E94D91A6728B5
:103B700019F081EE0E94D91ACD2809F47ACF8CE28F
:103B80006CCF81E00E94E5170E949517FDCE81E081
:103B90000E94A017F9CF82E0F5CF95EFE9169CE5DA
:103BA000F90609F46CC008F466C027E245EE66EE3B
:103BB000F6EFEF16FCE5FF0609F407C4882309F4C5
:103BC00026C41092080623E0E2162DE5F20608F05E
:103BD0005DC03AEFE3163CE5F30630F4C7018250CE
:103BE0009C45449708F05EC00E94B2109093540325
:103BF00080935303E1E1EE16ECE5FE0609F438C1CB
:103C000008F0A6C029E0E2162CE5F20609F41EC170
:103C100008F06FC085E0E8168CE5F80609F40AC1E3
:103C200008F058C0E3E0EE16ECE5FE0609F4F8C033
:103C300008F0FCC080915303816022E0E2162CE57D
:103C4000F20609F4F0C060915303F090540384E04D
:103C500090E00E94E52B6F2D82E290E00E94E52B20
:103C60000E94F41791CE27E245EE65EEAEC326E240
:103C700041EE60EEAAC327E245EE64EEA6C326E25B
:103C800041EE62EEA2C328E241E0EFCF81E6E81602
:103C90008DE5F80609F4A8CF95EAE9169DE5F90641
:103CA00009F4A2CF36E1E3163CE5F30609F0C8C3F8
:103CB000809139038A7A91E009F490E09093D202DE
:103CC00069E2811165E38AEC92E00E9461050E943D
:103CD00039175ACE80915303806237E0E3163CE5F2
:103CE000F30609F4A0C008F4ADC0809153038064CA
:103CF0009AC0809153038B7F9DE0E9169CE5F906FD
:103D000009F491C0B0F4809153038E7FFBE0EF166D
:103D1000FCE5FF0609F487C0809153038C602CE01A
:103D2000E2162CE5F20608F47EC0809153038D7FE5
:103D30007AC0809153038F7E3FE0E3163CE5F306A3
:103D400009F471C008F488C0809153038F7D6BC063
:103D50009DEFE9169CE5F90609F486C078F5F5E1D2
:103D6000EF16FCE5FF0609F491C0A0F4809153031F
:103D7000837F33E1E3163CE5F30609F454C008F40D
:103D80007BC00E94F41790915303892F97FB87F90A
:103D9000805849C09BEFE9169CE5F90609F44EC02E
:103DA00008F05EC0809154038160FAEFEF16FCE5E5
:103DB000FF0609F048CF8093540345CF21E0E21677
:103DC0002DE5F20609F46EC0B8F48FEFE8168CE525
:103DD000F80609F457C0809154038360E1149DE50F
:103DE000F90648F380915403982F909591708E7F37
:103DF000892B90FB81F9DFCFE1E6EE16EDE5FE06BB
:103E000009F456C0F5EAEF16FDE5FF0609F457C0C0
:103E100022E0E2162DE5F20609F015CF60E043C07E
:103E2000809153038260809353030DCF809153039D
:103E30008460F9CF809153038860F5CF809154035B
:103E40008260B9CF809153038061EDCF0E94F41757
:103E5000809153038068E7CF80915303877FE3CF3E
:103E6000809154038E7FA7CF809154038D7FA3CF81
:103E7000809153038F7BD7CF0E94F4178091530317
:103E80008F77D1CF809154038C7F95CF809153034E
:103E900082FB992790F921E0922790FB82F990FB11
:103EA00083F9C1CF61E08EE090E00E94E52BCBCE9C
:103EB00090915303892F8F7E94FF8061B4CF9091AE
:103EC0005303892F8E7F90FF8160ADCF85E3AAC217
:103ED0004CE256E065E376E00E94B30555CD45E33C
:103EE00056E06CE276E0F8CF4AE156E063E276E035
:103EF000F3CF43E256E06AE176E0EECF42E056E0EF
:103F00006EE076E0E9CF4EE056E062E076E0E4CFA6
:103F100046EF55E06AEE75E0DFCF4EEC55E06CED14
:103F200075E0DACF4CED55E06EEC75E0D5CF81E071
:103F30000E948C0329CD8DE0FBCF0E94F4178FEFF8
:103F400094E3ECE081509040E040E1F700C00000D5
:103F50000E94340F81E09AC280E098C2C7010E949B
:103F6000600ED82EA4C22F2D2F70C22E8F2D807FD1
:103F700019F0C29490EFC922DD20B9F0CC2069F08D
:103F800080E28E0D883010F0811009C080913903D5
:103F9000C82AC09239030E9439178E2D4DC08091D6
:103FA0003803C82AC0923803F6CF8E2D0E94D91A42
:103FB000CC2009F443C080E28E0D883010F08110CF
:103FC00004C08C2D0E944F0E06C0C094809138030F
:103FD000C822C09238030E94391730C03F2D3F706D
:103FE000C32E8F2D807F803219F0C29480EFC822BB
:103FF000882089F081E0881609F47FC0DD2009F46B
:1040000089C0BB2009F47FC0F801858180FFC5CF3E
:104010008F70858378C02091540322FF4BC0DD2030
:1040200009F442C0CC2039F080913903C82AC092EB
:1040300039030E94391780E00E94121B292D285055
:10404000330B2430310510F40E94A705AA2009F48F
:104050005ECC80912F0380FD5ACCF80112828595A9
:10406000859585950E94E517C8010E94651C809181
:104070002F038595859585950F900F900F900F9044
:104080000F90DF91CF911F910F91FF90EF90DF90F4
:10409000CF90BF90AF909F908F907F906F905F90E8
:1040A0004F903F900C94A01780E00E94D91ACC202A
:1040B00029F287CFDD20A1F090913A038C2D892B36
:1040C000B11003C00E94CF1AB9CFE1E0BE12FACFFF
:1040D00022FDB4CF981709F4B1CF80933A03AECF45
:1040E000B11006C00E94490E8C2D0E94C81AA6CF9E
:1040F000F1E0BF1609F4A2CFF5CFDD2031F025E0C5
:104100002B1508F49BCF8C2DDDCF34E03B1508F444
:1041100095CFEACFBB2041F3F9E38F1209C02FEF0F
:1041200037EE83E0215030408040E1F700C00000CE
:104130008E2D0E94D91A82CF8F2D869586958370F9
:1041400061F0813009F07ACFC7019370D11002C0BD
:1041500090E080E00E947B0571CFC7019370D11081
:1041600002C090E080E00E94910568CF8E2DDD2096
:1041700029F00E940B0C0E94290B60CF0E94500B6B
:10418000FACF8F2D837091F5D11058CF4E2D4295D7
:1041900046954770440F440F8E2D8F70042E01C03A
:1041A000880F0A94EAF72E2D2071E4FE07C02FE055
:1041B00030E001C0220F4A95EAF720953F2D369551
:1041C00036953370323069F050F440913B03313012
:1041D00029F0822B84230E94F01730CF842B822B6E
:1041E000FACF282B80913B038227F5CF8695DD20DF
:1041F00011F08F2D8170882309F420CF4E2D429528
:1042000046954770440F440F8E2D8F70042E01C0C9
:10421000880F0A94EAF72E2D2071E4FE07C02FE0E4
:1042200030E001C0220F4A95EAF720953F2D3695E0
:1042300036953370323069F050F4409110063130C9
:1042400029F0822B84230E949117F8CE842B822B95
:10425000FACF282B809110068227F5CF9F2D9F70D3
:10426000F92EDD2029F0892F0E94E5178E2D2ACF07
:104270008E2D0E94C81A8F2D0E94A017DFCE8E2D82
:10428000E2EF8E16B1F1E81570F0F0EF8F16D1F075
:1042900021EF821691F0DD2009F45EC0B1107DCED1
:1042A0008F2D8F712AC033EF831651F194EF89124D
:1042B000F2CF8091540382FF2FC08F2D8F71DD20AC
:1042C000D9F21BC0DD2081F0E4E0EB1508F4B6CE96
:1042D0002F2D2F7181E090E001C0880F2A95EAF719
:1042E000909110068927AFCFF5E0FB1508F4A6CE14
:1042F000EFCF8F2D8F71D110BFCF0E94E5179ECECB
:1043000080E0DD2009F49FCF9F2D9F7181E001C0E7
:10431000880F9A95EAF797CFDD2099F02F2D2F710E
:10432000F22E822F0E94E5178091540382FD07C070
:1043300038E0F39EC0011124836080932F038F2DFA
:10434000DCCF81E00E94AC1781E08B1508F076CEBF
:1043500082E00E94AC1772CEBB2059F0893309F07D
:10436000E7CE9FEFE7EEF3E09150E040F040E1F759
:10437000DDCE8F2D8F7180CFF0E1EF16FFE5FF06C8
:1043800009F4FFCB21E1E2162FE5F20609F403CC94
:1043900093EFE9169CE5F90609F469CC08F0FDCB2A
:1043A000F8EDEF16FCE5FF0609F45DCC29EDE21609
:1043B0002CE5F20609F467CC37EDE3163CE5F3068D
:1043C00009F0FCCB26E241EE61EEC8010E948C1B95
:1043D000DBCA30E1E3163FE5F30609F4D8CB91E1FF
:1043E000E9169FE5F906A1F682E0D2CB85E0DE0171
:1043F000119601900D928A95E1F7F8012281898149
:104400009A8121119BCA0E94600EF82E9FCAF6E184
:10441000EF16FCE5FF0609F083C08091D2028111FE
:1044200055CD89E2ECECF2E022ED32E09191891376
:1044300003C0DF0111971C922E173F07B9F747CC35
:104440002AE5E2162DE5F20609F484CD68F4E114BC
:104450008CE5F80609F471CD9EEDE9169CE5F906A8
:10446000B9F40E94FB1B90CAEBE5EE16EDE5FE06E3
:1044700009F472CDFCE5EF16FDE5FF0649F48091E5
:10448000540382FB882780F991E089270E94C8178E
:10449000F8018281E080F180882309F45FCDC701B3
:1044A0000E943E10D82E682FC7010E94880EB701C7
:1044B0008D2D0E9431100E94C10C7C01882EF801C4
:1044C000D280B580B2943FE0B32280912F038770F1
:1044D000C1F0AD2CDD20B1F08F2D807F803421F034
:1044E00080E28E0D883068F08091540382FD09C00F
:1044F00082E00E94AC1780912F038770AA24A394B6
:104500008111A12C9F2C92942FE09222FBE0F915AF
:1045100008F494CDE92DF0E0E956F34D0C94412BCD
:104520008091390382722AECE2162CE5F20609F436
:10453000EFCCE0F595ECE9169CE5F90609F4D4CC4E
:10454000E0F4F3ECEF16FCE5FF0609F4C1CC08F04B
:10455000C6CC32ECE3163CE5F30609F099CF809126
:104560000A0691E0892780930A061092180180912B
:10457000090681608093090607CA97ECE9169CE555
:10458000F90609F4BBCC08F4B4CCF8ECEF16FCE562
:10459000FF0609F4B8CC4AEE55E066EF75E029EC69
:1045A000E2162CE5F20609F497CC72CF3FECE31645
:1045B0003CE5F30609F4BFCCB0F4ECECEE16ECE508
:1045C000FE0609F4AFCC08F4A8CC2DECE2162CE5DD
:1045D000F20609F4ACCC85E03EECE3163CE5F306CC
:1045E00009F4A6CC55CF86EDE8168CE5F80640F424
:1045F00082E191EDE9169CE5F90608F499CCC4C96D
:10460000EDE5EE16FE0609F4BFC942CF1F93CF9326
:10461000DF938091FC02807FA9F48091F9028823C6
:1046200089F080912E03D091FD026091F702709184
:10463000F802A091FA02B091FB02C62FC72316E040
:10464000D81304C0DF91CF911F91089590E0109787
:1046500011F0CF3F19F401968770F2CF189F9001A7
:10466000199F300D1124F901E250FD4F418147138C
:10467000F2CF40814613EFCF42814111ECCF43810D
:1046800054814A1B5B0B483C510528F78091FC0282
:104690008F7080618093FC02F901ED5FFC4F808197
:1046A0008F708061808387EF92E00E94651CDF91AC
:1046B000CF911F910C94560EAF92BF92CF92DF9282
:1046C000EF92FF920F931F93CF93DF93CDB7DEB797
:1046D00061970FB6F894DEBF0FBECDBF8C0185E0A9
:1046E000F801DE011D9601900D928A95E1F7F8011F
:1046F000E28087EFA82E82E0B82E6091FA027091D6
:10470000FB026115710509F432C19091F7024091E5
:10471000F802892F84238F3F09F429C12081318138
:10472000C380D480F090F902F601E61BF70BFF205E
:1047300009F4E8C08091FC02582F507FE83CF10555
:1047400008F0ABC0511177C0FE2C431321C0921367
:104750001FC0E1101DC08F7080618093FC02C501F5
:104760000E94651C8091FC02F80185838F2D619663
:104770000FB6F894DEBF0FBECDBFDF91CF911F9172
:104780000F91FF90EF90DF90CF90BF90AF90089582
:10479000CD2829F0822F83238F3F09F003C180E0C9
:1047A000F82FF170DF2E80FF3CC080912E034091E6
:1047B000FD0256E0841315C02D873E878D859E85AA
:1047C0000E946D10292F22952F702230F0F0243096
:1047D00018F59F70F1F0F8019581907FD1F4D12CFC
:1047E0001EC090E0589FF001599FF00D1124E25037
:1047F000FD4F6181361306C06081261303C06281BC
:10480000E6120FC001968770D5CF9F7011F08823F4
:1048100031F3805E883018F3C8010E94651CFD2CBE
:10482000A5CFEE2009F4A2CF8091FC028160809395
:10483000FC02F12C9BCF431306C0921304C0F80175
:10484000EE2009F479C0C8010E947910882309F18B
:10485000EE20F9F08091FC02803270F02091F70296
:104860003091F80238872F831986DB86CA868C87B9
:10487000CE0107960E94651C86E0F801A7EFB2E022
:1048800001900D928A95E1F70E940623FF24F3948C
:104890006DCFC8010E94651CF9CF51110AC087EF86
:1048A00092E00E94651C86E0F50111928A95E9F775
:1048B000C0CF43130FC092130DC0E1100BC0F8011D
:1048C0008583C8010E94651C86E0F50111928A95D6
:1048D000E9F74CCFC8010E9479108823D1F2EE206D
:1048E000C1F28091FC02803238F22091F7023091BF
:1048F000F8023A8329831B82DD82CC828E83CE012B
:104900000196B8CFE83CF105F8F6FE2CEE2009F24E
:1049100043131FC092131DC08091FC0280FD10C084
:10492000982F907F69F0F8018583903F31F0982FA0
:10493000907F905F8F70892B8583C8010E94651CD2
:1049400086E0F801A7EFB2E001900D928A95E1F7B9
:104950000DCFC8010E94791081118ECF8091FC0289
:1049600081608093FC02C8010E94651CFFCEEE208E
:1049700009F48FCFC8010E947910F82E882309F41A
:1049800088CF86E0F801A7EFB2E001900D928A95FA
:10499000E1F78091F7029091F8020E946D100E9459
:1049A0000623E4CE81E08E25FBCE1F93CF93DF93C9
:1049B000CDB7DEB767970FB6F894DEBF0FBECDBF99
:1049C0004B8B5C8B6D8B7E8B8F8B611110923803C0
:1049D0001A8A198A85E0FE017396DE011D96019000
:1049E0000D928A95E1F786E0FE013D96DE0117966D
:1049F00001900D928A95E1F7CE0107960E945C2303
:104A0000882389F016E080912E039091FD0289138E
:104A100049C067960FB6F894DEBF0FBECDBFDF91D9
:104A2000CF911F91089586E0FE013796DE01119621
:104A300001900D928A95E1F78A859B85892B11F368
:104A40008F81988589238F3FE9F22091FD0230E024
:104A5000C90101968770992740912E0348171906BE
:104A600071F40E94F4171092FD0210922E0386E05A
:104A7000E7EFF2E0DF011D928A95E9F7C3CF96E0F8
:104A8000929FD001939FB00D1124A250BD4FFE0103
:104A9000319601900D929A95E1F78093FD020E9464
:104AA000560EB0CF819FC001112482509D4F0E94AD
:104AB0005C23882309F4ADCF80912E0390E001960A
:104AC0008770992780932E039ECF1F920F920FB667
:104AD0000F9211242F933F934F935F936F937F9384
:104AE0008F939F93AF93BF93CF93DF93EF93FF93F6
:104AF000D091E900DF708091EC00C82FC17080FD7B
:104B0000C0E81092E9008091F000877F8093F00068
:104B100078940E94FF171092E9008091F00088605D
:104B20008093F000CD2BCF70C093E900FF91EF91FF
:104B3000DF91CF91BF91AF919F918F917F916F91B5
:104B40005F914F913F912F910F900FBE0F901F904B
:104B500018951F920F920FB60F9211242F933F9327
:104B60004F935F936F937F938F939F93AF93BF9375
:104B7000EF93FF938091E10082FF09C08091E200F2
:104B800082FF05C08091E1008B7F8093E1008091DE
:104B9000DA0080FF24C08091D80080FF20C080917F
:104BA000DA008E7F8093DA008091D90080FF9DC06B
:104BB00080E189BD82E189BD09B400FEFDCF81E0BD
:104BC0008093F8058091EB05811109C00E94B8031C
:104BD0000E9483048091E20084608093E2008091CF
:104BE000E10080FF17C08091E20080FF13C0809138
:104BF000E2008E7F8093E2008091E20080618093EA
:104C0000E2008091D80080628093D80019BC85E0D2
:104C10008093F8058091E10084FF2BC08091E20031
:104C200084FF27C080E189BD82E189BD89B5982FC5
:104C3000917080FFFBCF8091D8008F7D8093D8004A
:104C40008091E1008F7E8093E1008091E2008F7E71
:104C50008093E2008091E20081608093E200809185
:104C6000F905882309F447C084E08093F805809112
:104C7000F8058091E10083FF27C08091E20083FF67
:104C800023C08091E100877F8093E10082E08093E0
:104C9000F8051092F9058091E1008E7F8093E10084
:104CA0008091E2008E7F8093E2008091E20080613B
:104CB0008093E20042E060E080E00E945104809135
:104CC000F00088608093F000FF91EF91BF91AF9169
:104CD0009F918F917F916F915F914F913F912F9114
:104CE0000F900FBE0F901F90189519BC1092F805E9
:104CF0001092EB0574CF8091E30087FD93E09093D1
:104D0000F805B5CF78941F921FB61F9211248F9388
:104D10009F93AF93BF938091E4059091E505A09197
:104D2000E605B091E7050196A11DB11D8093E4054C
:104D30009093E505A093E605B093E705BF91AF9189
:104D40009F918F911F901FBE1F9018951F921FB6A5
:104D50001F9211248F939F93AF93BF938091E3058C
:104D6000811113C08091E4059091E505A091E605BD
:104D7000B091E7054196A11DB11D8093E405909384
:104D8000E505A093E605B093E705BF91AF919F912C
:104D90008F911F901FBE1F901895CDB7DEB7E29779
:104DA0000FB6F894DEBF0FBECDBF84B7877F84BF38
:104DB0000FB6F894A8958091600088618093600098
:104DC000109260000FBE80E890E00FB6F8948093D8
:104DD0006100909361000FBE85B7806885BF85B77D
:104DE000806885BF85E69CE09093C9028093C802E5
:104DF0000E94B8030E9483048091E2008460809343
:104E0000E20078948091F8058823A1F01091E900E0
:104E10001F709091EC00892F817090FD80E8182B15
:104E20001092E9008091E80083FD0E94FF171F7037
:104E30001093E90082E084BD93E095BD9AEF97BDA1
:104E400080936E000E949910811102C00E94FC0F95
:104E50000DE411E0F2E5EF2EF1E0FF2ED8018D9187
:104E60008D018F3F11F00E94670CE016F106B1F73B
:104E700002E511E0E4E6EE2EE1E0FE2EF80181917C
:104E80008F018F3F11F00E94670CE016F106B1F719
:104E900084E1EBE6F3E0DF01482E1D924A94E9F746
:104EA000EFE3F3E0DF011D928A95E9F70E94F01B22
:104EB000811102C00E94FB1B82E090E00E94C72B80
:104EC000809355030E94B210909354038093530330
:104ED0000E945516BFEFE6E7F1E0B150E040F04028
:104EE000E1F700C000000E94551680916B0380FF1F
:104EF00008C06FEF7FEF90E080E00E94032C0E94DB
:104F0000340F83E090E00E94C72B0E94F0170E94AC
:104F1000F01B811104C00E94FB1B0E943A1646E060
:104F200050E06CE170E08AE096E00E94B72B1092AE
:104F3000090680910A068C7F11F40E943A1684E0DB
:104F400091E09093E0058093DF05FF24F3947FE7E1
:104F5000C72E73E0D72EEE24E3948091F80563E02A
:104F6000B62E00E112E1853009F4BDC10E9455164C
:104F7000882359F08FB7F8944091E4055091E505E6
:104F80006091E6057091E7058FBF3BE6232E33E085
:104F9000332EE6E5F3E0D10110E000E0902F4D91D3
:104FA0005D916D917D914190519061907190441609
:104FB00055066606770609F4AAC153014201842604
:104FC0009526A626B7268FA698AAA9AABAAA80E0EF
:104FD000812C912C540183944FA458A869A87AA8D5
:104FE000482059206A207B2045284628472809F474
:104FF00086C189A39AA3482159216A217B2181E096
:10500000452B462B472B09F480E08BA30E945505C6
:105010008160782F9DA38CA349A15AA16BA18DA17A
:105020000E94D524000F111F000F111FF801EA5A2A
:10503000FC4F80819181A281B38188259925AA2581
:10504000BB2580839183A283B3830E94C71586E02A
:10505000E6E8F3E0DE01119601900D928A95E1F702
:10506000B0908803A090890310918A0300918B036C
:10507000109288031092890310928A0310928B0376
:105080008B2D8A2909F448C080918403909185036F
:105090000E9446059C0190918003992309F4C4C2A3
:1050A00025313105C8F19F3F19F09F5F9093800330
:1050B000BB2059F00E94EB0B9FEF1B140CF491E006
:1050C000899F802D112480938803AA2059F00E9483
:1050D000EB0B9FEF1A140CF491E0899F802D1124A3
:1050E00080938903309188033323B1F020918903A1
:1050F000222391F045EB3403C0011124992309F4D4
:105100001DC19093880345EB2403900111243323A0
:1051100009F417C130938903812F802B09F448C00B
:1051200080918203909183030E9446059C01909197
:105130007F03992309F473C221353105C8F19F3FDC
:1051400019F09F5F90937F03112359F00E94C90BC0
:105150009FEF11160CF491E0899F802D112480930C
:105160008A03002359F00E94C90B9FEF10160CF41C
:1051700091E0899F802D112480938B0330918A03C5
:105180003323B1F020918B03222391F045EB3403BC
:10519000C0011124992309F4D7C090938A0345EBE9
:1051A000240390011124332309F4D1C030938B03DD
:1051B0008091880390918903892B90918A03892B90
:1051C00090918B03892B11F00E94290B86E0FE0140
:1051D0003196A6E8B3E001900D928A95E1F70E941E
:1051E000A70590916A03891380936A038091F8055B
:1051F000843009F0B2CE83E08093E9008091E8002A
:1052000082FFABCE8091E80090E085FF06C00E944F
:10521000D703882309F49EC091E08091E8008B7742
:105220008093E800992309F498CEE981E150E331B5
:1052300008F00FC1F0E0ED55F34D0C94412B809137
:10524000F805843009F43BC00E94C7158091E90439
:1052500081110DC00E942D111092130180910A0638
:105260008370809312010E94580FB0921801E0924F
:10527000E9041092E30548E1442E512C50E4652ED8
:105280000FB6F894A895409260000FBE609260003F
:1052900083B7817F846083BF83B7816083BF789445
:1052A000889583B78E7F83BF0FB6F894A8958091B9
:1052B0006000886180936000109260000FBE809152
:1052C000F705882381F00E945516EBE6F3E0819103
:1052D0009191A191B191892B8A2B8B2B09F080C1DF
:1052E000CE16DF06A1F78091F805853009F4A7CF27
:1052F0000E94F4170E94A7051092E90437CE8F5F31
:10530000880C991CAA1CBB1C823109F065CE0F5F6A
:105310001F4F0530110509F041CE8FEF8EA38FA3EB
:1053200018A60E9455058160782F9AA789A74EA1DB
:105330005FA168A58AA50E94D52487CEF092880334
:10534000E2CEF0928903E8CEF0928A0328CFF09261
:105350008B032ECF00E210E0CE0101965C0180911C
:10536000E80085FD0AC08091E8008B778093E80013
:105370000E94D703882399F34FCF8091F100D50184
:105380008D935D010150110951F746CF1A8289E0D2
:105390008B831AC08A81823009F438C18330D9F1F5
:1053A000813009F056C02FB7F8946091E4057091F0
:1053B000E5058091E6059091E7052FBF0E94472BF8
:1053C0006B837C838D839E838091F805843009F004
:1053D000C4CD1091E9001F709091EC00892F81706D
:1053E00090FD80E8182B82E08093E9008091E8002E
:1053F00080FF0DC050E040E060E270E0CE01019619
:105400000E9408048091E8008E778093E8001F7066
:105410001093E900A2CDFE013196D1014D915D912D
:105420006D917D911D016283538344833396CA1627
:10543000DB0699F7C9CF8A81823059F46B817C8170
:105440008D819E810E94472B86E290E00E94E52B91
:10545000BBCF8FEF8983B8CF4C816B818A810E944B
:105460000B109827892798279E838D83ADCFAD8019
:10547000BE80BA24AB24BA248A810B81B4E20B9F8C
:1054800080011124E4EB8E9F000D111D11248C81ED
:1054900090E0880F991F080F191F6B2DC801879680
:1054A0000E94E52B6A2DC8018896D0CF0E948F0FED
:1054B0008BCF80E18A8388CFFA8269CF0A811B81F2
:1054C000102701271027CE0101965C018C80DC019A
:1054D000A80DB11D4D01C80189509D4F8A149B0430
:1054E00009F472CF0930B1E01B0750F40E94C72BBA
:1054F000F50184830F5F1F4FBFEFAB1ABB0AEBCFE1
:10550000D50114961C92F6CF0A811B811027012722
:105510001027FE0131964F01AC80A00EB12EB11CB8
:10552000C80189509D4FA016B10609F44DCF09302E
:10553000F1E01F0728F4D40114966C910E94E52B2A
:10554000BFEF8B1A9B0A0F5F1F4FEACF0E947F0F9E
:105550003BCF84E0AFCF0A811B81102701271027A2
:10556000FE0131965F018C802F01480C511C4201D5
:10557000C8018796A814B90409F426CF003D22E09B
:10558000120758F40E94C72BD50114968C930F5F15
:105590001F4FFFEFAF1ABF0AEBCFF5011482F7CF11
:1055A0000A811B81102701271027CE0101964C018B
:1055B000AC80A00EB12EB11CC80187960A151B0540
:1055C00009F402CF003DA2E01A0720F4F40164813F
:1055D0000E94E52BFFEF8F1A9F0A0F5F1F4FECCF42
:1055E00009BD19BD09B400FEFDCF8091D8008F7DA3
:1055F0008093D8008091E00082608093E0008091E9
:10560000E00081FDFCCF0E94F4176DCE86E290E0B1
:105610000E94C72B1B821C821D828E83D5CE2B300D
:10562000310508F08ECDC4CD2B30310508F03DCDCD
:1056300073CDAA1BBB1B51E107C0AA1FBB1FA61736
:10564000B70710F0A61BB70B881F991F5A95A9F72B
:1056500080959095BC01CD01089597FB072E16F417
:10566000009407D077FD09D00E94192B07FC05D0C4
:105670003EF4909581959F4F0895709561957F4F69
:105680000895EE0FFF1F0590F491E02D099469270E
:105690009627692778278727782708958F929F92E2
:1056A000AF92BF92CF92DF92EF92FF92CF93DF93B0
:1056B000EC01688179818A819B8161157105810581
:1056C000910521F464E279ED8BE597E02DE133EF6C
:1056D00041E050E00E94092C49015A019B01AC01B4
:1056E000A7EAB1E40E94282C6B017C01ACEEB4EF78
:1056F000A50194010E94362CDC01CB018C0D9D1D6F
:10570000AE1DBF1DB7FF03C00197A109B048888334
:105710009983AA83BB839F77DF91CF91FF90EF900E
:10572000DF90CF90BF90AF909F908F9008950E9490
:105730004E2B089580E091E00E944E2B0895B0E03A
:10574000A0E08093000190930101A0930201B09327
:1057500003010895FB01DC0104C08D9101908019C3
:1057600021F441505040C8F7881B990B0895DC0183
:10577000CB01FC01F999FECF06C0F2BDE1BDF89A5C
:10578000319600B40D9241505040B8F70895F99900
:10579000FECF92BD81BDF89A992780B50895A8E102
:1057A000B0E042E050E00C94B92BDC01A40FB51F2F
:1057B0004150504048F0CB01840F951F2E910E941C
:1057C000E62B41505040D0F70895262FF999FECF8F
:1057D00092BD81BDF89A019700B4021639F01FBA44
:1057E00020BD0FB6F894FA9AF99A0FBE0895039661
:1057F000272F0E94E62B0E94E52B252F0E94E62BE7
:10580000242F0C94E62B0196272F0E94E62B0C9454
:10581000E52B052E97FB1EF400940E94202C57FDCB
:1058200007D00E943B2C07FC03D04EF40C94202C94
:1058300050954095309521953F4F4F4F5F4F0895BC
:1058400090958095709561957F4F8F4F9F4F0895EC
:105850000E945D2CA59F900DB49F900DA49F800D7C
:10586000911D11240895B7FF0C94282C0E94282C18
:10587000821B930B0895A1E21A2EAA1BBB1BFD01EC
:105880000DC0AA1FBB1FEE1FFF1FA217B307E4071F
:10589000F50720F0A21BB30BE40BF50B661F771F77
:1058A000881F991F1A9469F7609570958095909557
:1058B0009B01AC01BD01CF010895A29FB001B39F30
:1058C000C001A39F700D811D1124911DB29F700D09
:1058D000811D1124911D0895F894FFCF6611941134
:1058E000C411011240128312C812CD12D012D61266
:1058F000D912DE12E112E412E712EA12ED12F012EE
:10590000F312F612F912FE120113041340137C1362
:10591000C113C413C7133114FB14E5180D19B01AC1
:105920000D19B01A40196119B01A5F1A6C1AB31F19
:10593000B31FEE1FEE1F9C20B6201E201E20C1208C
:105940002E213F213F21C629CA291B2A2C2A372A6A
:10595000562A292A292A292A292A292A592A5C2A1F
:0C5960005E2A842AA62AA92AAB2AD02A93
:10596C00010000004305070FE60EE20EDE0E4205B5
:10597C003905FFFF0100FF000300FF96818283E2DF
:10598C0000E900EA00B500B600B700CD008301CCF9
:10599C00008A01920194012102230224022502268D
:1059AC000227022A02B300B4006F0070009091929B
:1059BC0093959496973435366667F7F6F5F4F1F0CF
:1059CC0030313233003131295A1B750A40227B4960
:1059DC00012701AC001B06340654063F40414243EC
:1059EC004445464748494A4B4C4D4E4F502E2F305C
:1059FC003132333435363738393A3B3C3D3EFF1D76
:105A0C001E1F202122232425262728FF292A2B2C60
:105A1C002D0D0E0F1011121314151617FF18191A3D
:105A2C001B1CFF000102FFFF03FFFFFF040506071D
:105A3C0008090A0B0C014010401F404B407B40846E
:105A4C004090409F40AB40B740C640D240E040073A
:105A5C00301B30273033303F304B30573063306F92
:105A6C00307B3087309730AB30BA30C630D2300410
:105A7C0024142420242C243824442450245C24680A
:105A8C0024742480248C24A024BA24C624D224E098
:105A9C0024031012101E102A10361042104E105AE9
:105AAC0010661072107E108A109610A510BA10C6CF
:105ABC0010D21000000C001800240030003C0048EC
:105ACC0000540060006C00780084009000A200BAC2
